:100000000C94520A0C947A0A0C947A0A0C947A0A88
:100010000C947A0A0C947A0A0C947A0A0C947A0A50
:100020000C947A0A0C947A0A0C946C0C0C94DE0CE6
:100030000C947A0A0C947A0A0C947A0A0C947A0A30
:100040000C947A0A0C947A0A0C947A0A0C947A0A20
:100050000C947A0A0C947A0A0C947A0A0C94D614AA
:100060000C947A0A0C947A0A0C947A0A0C947A0A00
:100070000C947A0A0C947A0A0C947A0A0C947A0AF0
:100080000C947A0A0C947A0A0C947A0A0C947A0AE0
:100090000C947A0A0C947A0A0C947A0A0C947A0AD0
:1000A0000C947A0A0C947A0A0C947A0A19172C1771
:1000B00037179C17C917881868184E18F0F89C8EC7
:1000C0008783878E9CF8F00000FEFF030303030381
:1000D000070EFCF80000FEFF0303030303070EFCFA
:1000E000F80000FFFF00000000000000FFFF00001C
:1000F000FEFF8383838383C7EE7C380000F8FC0E09
:1001000007030303070EFCF800003F7FE0C0808078
:10011000C0E07F3FFFFF01010101010101FFFF007E
:1001200000FFFF0C0C0C0C1C3E77E3C100007FFFAE
:10013000C0C0C0C0C0E0703F1F00001F3F70E0C0E3
:10014000C0C0E0703F1F00007FFFC1C1C1C1C1E35B
:10015000773E1C00001F3F70E0C0C0C0E0703F1F32
:10016000000000000001FFFF01000000D5F08D1429
:10017000A1C881CFD9F1AF200053746570733A20C4
:1001800000594F552057494E20464F52204E4F5749
:10019000004120746F20636F6E74696E75652E0068
:1001A000456E746572696E67204C6576656C3A20A1
:1001B00000466C6F6F723A20004C6576656C3A2091
:1001C000000000000050E020909020E070180C0427
:1001D00000002030180D0B040908040B0500000076
:1001E00000000000000000000000B0A828A8B00037
:1001F00000000016150515160000000000000000A4
:100200000000007088B87878787878707060C000E6
:100210000000000000000119051D19010101000086
:1002200000000000000000FC02FEFC0000000000D6
:10023000000000000000403F403F7F000000000041
:100240000000C03008C4245292925224C40830C026
:100250000000030C1023244A49494A2423100C03AC
:100260000020007A003D006F007E006C00440055C5
:100270000004302430281055005500550023007F1D
:10028000087F087F082A0000021E1010007A000074
:1002900010100404003D00001C1C1808007E000023
:1002A00010300C02006C00001C222A1C006F000899
:1002B0001024100800000804120408000822140882
:1002C00000000814220800003E14143E00550000EF
:1002D0003E3A223E0044000033301703317C002DAB
:1002E00000204C6F636B6564004C6576656C200084
:1002F00080400000003078CC783040E0B0E0400032
:100300000080808080C0C0C08080800103000B0519
:100310001C0428352C42447A9818A0042CBC0BA34A
:10032000C7B2343D10A28B777760E0B7B71B30D8E7
:100330002AC6C240991B7B219341ED22C6C04011C1
:100340001B59291141452A44824099113B018241A0
:10035000A800C64000110A11281100012A44820099
:1003600088002A008200A8000200000002000800A5
:10037000000000000000007EE0C0C0F80D0060FC3E
:100380008E738D257596AA4A1AF60D9B66F80000A5
:1003900000000000000000010301050700050A1924
:1003A000055B2EE62041AF671660D1C64186046129
:1003B000A8190A01646EEE264D05B42019080144FF
:1003C0006ECCA645051428118A4124A452A8C8E978
:1003D000C8F4E4F4F4E8E8E8D2A5A04048800A00B4
:1003E0002044AA000800A0000000000022008000B5
:1003F00000000000000000EF5F1FBF3F3E78787BE9
:10040000776C696A6A6AFA727B75FA7DBA3938D88C
:1004100028000000000000000000000000000000B4
:10042000000000000001010102020B100A2D38013A
:1004300010170B253218291026151310170925102F
:10044000180918049540A05798D6EFC6EFC7E3D116
:10045000E3D1E0D1A0810307070F1F3FFFFEFDFAA4
:10046000F4E8D020C20002000200200000000800D2
:1004700000000000000000039FC080077E0781008D
:10048000E0039F00833E03C0CFC180071F0000012F
:10049000000CFCFC3CFCF080C0F0781CFCFCFC0C6C
:1004A00000000080E07C3CFCF8C0000000003C1C28
:1004B0008CCCFC7C3C0C000CFCFCFCCCCCEC0C1C78
:1004C000000000C72855AA47EFE777BBDDCD1585AB
:1004D00085858589810000000000000000FFFFFF86
:1004E000FFFFFFFFFEFD020C102040800000000017
:1004F000000000000000FCFE57BBBF8F8783010097
:100500007F807F00013A2AAAAA2A2956EC0000001F
:1005100000989F9F98818F9F8F0300189F9F9F989F
:1005200000989C9F9B03839B9F9F1E1880989E9F73
:100530001F9998989C1F00989F9F9F189899989C26
:100540009F8080800102848588929793898403002C
:10055000000000000001E11EA070F87EFF7F7F3FD9
:100560009F43A7CFA7D1EAF5FAFE5C08916A040081
:100570000000000000001F3FF1EECAAA6AEA6AE428
:100580006060606070381C8FC7E0F03F1F000000A3
:100590000000FFFF103070F8CF8F000000FFFF0059
:1005A0000000FFFF000000FFFF030F3CF0FFFF0013
:1005B0000000FFFF030F3CF0FFFF000000FFFF08FB
:1005C000081C81E3620000FFFF103070F8CF8F003D
:1005D000000000000000010204090A0908080409DB
:1005E00010252B272F272F170B131110211E00006A
:1005F0000000C040C040408080810143C7C747C65B
:1006000047468686860747C3C141C04040808080F8
:100610000041C1C141C040408181810040C0C14111
:10062000C141418080800141C1C140C040418180C1
:10063000800141C1C140C040418180800141C1C1B0
:1006400041C141418080810141C1C040C0414181DF
:1006500080800040C0C040C040408080800040C0DA
:10066000C040C040408080800040C0C040C040408A
:1006700080809E8A64503B0A71B05026869E8A64B0
:10068000503B0A71B05026869E8A64503B0A71B076
:100690005026869E8A64503B0A71B05026869E8AF8
:1006A00064503B0A71B05026869E8A64503B0A71A2
:1006B000B05026869E8A64503B0A71B05026869EB2
:1006C0008A64503B0A71B05026869E8A64503B0A69
:1006D00071B05026869E8A64503B0A71B0502686BF
:1006E0009E8A64503B0A71B05026869E8A64503BB5
:1006F0000A71080B00020202010009040000010255
:100700000200000524001001052401010104240257
:1007100006052406000107058103100040090401B5
:1007200000020A00000007050202400000070583DE
:10073000024000000403090412010002EF0201401C
:100740004123368000010102030141726475696E24
:100750006F204C4C430041726475626F7900400019
:100760007C203C3C3C3C207C2D2D2D2D2D2D2D2DF9
:100770002D2D2D2D7C7C207C6C3C3C20203E3E3E53
:100780003E3E3E3E3E3E20207C7C20207C203E3E65
:10079000552020203C207C762D2D7C7C207C7C20CC
:1007A0007C3E762D2D2D2D7C2076767C202D2D7C6B
:1007B0007C557C7C207C3E762D2D2D2D7C20202090
:1007C0003C2020207C2D2D2D7C20203E203C7C2098
:1007D000203E3E3E3E3E207C207C55202020207C3A
:1007E0007C767C7C55203E3E3E3E202D7C6F7C2DD1
:1007F0002D2D202D2D7C20202020203E3E3E20200F
:100800002D7C2D7C202020202D2D7C2D2D7C203C0E
:100810003C3C3C3C2020202020202D2D5500207CDD
:10082000202020202020202020202020557C207CDB
:10083000202055207C5E2D2D2D2D2D2D7C207C7C87
:1008400020207C207C767C20207C5E202020442D73
:100850002D7C207C2D7C207C207C207C5E207C5E7E
:100860002D2D2020202020552020202020207C44B9
:100870002020207C5E5520202D2D2D7C207C2020CA
:1008800020207C2D2D2D2D207C2D2D2D2D2D2D2D21
:100890007C207C2D2D2D2D7C44202055207C207CFF
:1008A000202044202020203C207E55207C2D2D2DF2
:1008B0002D557C207C202D2D2D2D7C207C2D2D2D2B
:1008C0002D7C202020202D7C557C55203C20202074
:1008D00020202020202020202D2D440020202020FA
:1008E00020202020202020202020447C447C207CAC
:1008F00044207C207C2D2D2D2D2D2D5E2D2D202076
:100900007C207C2D7C20447C2020202020207C20EA
:1009100020207C2D2D7C207C2D7C202D2D7C2D2DB0
:100920002D7C203C2020203E202020202020202024
:10093000207A7C44202020207C2020207C2D2D2DFE
:100940002D2D2D7C7C203E202D2D7C2D2D2D2D76AA
:100950002D2D2020207C3D7C2044207C2020207CCC
:100960002D2D7C2020207C2044207C207C207C207D
:100970007C207C2020202020207C20202020207C07
:100980002020207C2D7C447C442D2D2D2D2D7C2D54
:100990002D2D2D2D7C2D2D2D7C007C202020202008
:1009A00020202020202020202020207C207C557CFE
:1009B000207C2D2D2D2D7C7C202D2D2D2D2D7C551D
:1009C0007C557C207C207C552020207C20207C2095
:1009D0002020207C207C207C207C207C2D2D2D2024
:1009E0007C202D7C207C2D207C207C207C207C2069
:1009F0002020207C207C20207C207C20207C207CCF
:100A0000207C202D2D2D7C207C207C2D2D2D207CCC
:100A1000207C20207C207C20207E207C207C2020AC
:100A2000202020207C7C2D2D2D7C207C20206C5FA4
:100A30007C207C2D2D2D2D2D2D7C7C3D2020202DCE
:100A40007C202D6F207C557C2020207C5520202070
:100A500020202020202020006C7C5520207C2D7C14
:100A60002D2D2D7C20207C202D7A207C44202D7C57
:100A70002D207C207C5520207C20207C20447C550F
:100A80007C2020207C44207C2D7C2D7C207C2D2DE6
:100A90007C207C2D7C7C202D207C2D2D2D2D2D2D22
:100AA0007C20202020202020207C552020207C20FD
:100AB000207C202020202D2D7C207C207C207C2D43
:100AC0002D207C2D2D2D20207C7C20202020207C82
:100AD000207C2020207C207C552020207C7C2D2DFB
:100AE0002D2D7C207C2D2D2D2D557C207C2D2D2DEC
:100AF0002D7C7C202020202020202020207C2D7C6C
:100B0000557C207C442020202020442020207C2054
:100B10007C20202055002020447C202020207C2D7B
:100B20007C2D2D2D2D2D2D7C2D2D7C202D7C7C2D77
:100B30002D2D7C44207C2020205520207C44207CAE
:100B40002020207C6F20207C7C202020207C2D2DCC
:100B500020207C207C7C2D207C2D7C207C2D2D2D2C
:100B60002D207C202020207C447C2020207C207C88
:100B7000207C20552020207C207C7C202D2D2D20A9
:100B80002D7C2D2D7C557C207C2D2D2D2D207C7CAD
:100B90002020207C20204420207C2D7C2020202010
:100BA0002020207C7C557C447C2D2D2D2D2D2D2D21
:100BB0002D2D2D2D2D2D2D2D2D2D2D2D2D2D44205B
:100BC0002020202020202020202020202020202025
:100BD00020204400552D2D2D2D2D2D2D2D2D2D2D4D
:100BE0002D7C20202020207C55202020202020200B
:100BF0002020202020207C447C2D2D207C202D2D89
:100C00002D207C7C207C7C2D2D7C202D2D7C2D7C12
:100C1000207C20202020202D7C207C7C2D2D2D2030
:100C20002020202020207C20207C2D7C2D7C207CDE
:100C30007C44207E7C207C202D20202D20207C20A8
:100C400020207C447C7C2D2D2D7C7C7C20202D2024
:100C5000202020202020207C207C2D7C7C2D2D2DF0
:100C60007C2D7C442D2D2D7C2D2D7C207C2D7C7C81
:100C700020202020207C2D7C20202020552020207A
:100C80002020202020207C557C2020202020202077
:100C90002000442020207C2D2D2D2D2D2D2D2D2D7F
:100CA0002D2D20202020442D2D7C20202020202090
:100CB00020202020202020207C2D2D2D20207C2055
:100CC0007C2D2D2D2D7C207C2D2D2D7C207C2020FD
:100CD000207C2020207C202020202020202020205C
:100CE000202020207C2D7C207C207C207C2D2D7CB5
:100CF000207C2D2D2D2D7C207C20207C207C2020F4
:100D0000202020207C207C202D2D2D7C207C2D2D32
:100D100020207C2D2D2D2D2D2D7C207C2020202071
:100D20002020202020207C2020207C20202020200B
:100D30007C2D7C207C2D7C207C2D4420202020209C
:100D400020207C207C4420202020202020202020C7
:100D5000002D2D2D2D2D2D2D2D2D2D7C20202020D5
:100D60002020202020207C552020202020202020F2
:100D70007C202D2D2D7C207C2D2D202D2D2D2D7C8E
:100D8000207C2D2D207C2020202D7C207C55202097
:100D90002020202020207C5520207C207C20557C79
:100DA00020202D2D207C207C2D7C207C2D2D2D7C29
:100DB0002D2D202D7C2D20207C207C207C207C2033
:100DC000202020207C202020207C20202D7C2D7C99
:100DD000207C207C2D2D2D2D2D2D7C207C207C20F9
:100DE000206F7C207C207C207C2D2D2D2D2D207CA7
:100DF000207C207C2D2D2D7C2020557C2020202027
:100E00002020202020202020202020202055007C71
:100E10002D2D2D20202D2D2D2D2D2D2D552D2D2001
:100E200020207C557C4420207C2020202020202055
:100E300020202020207C2D7C207C2020207C207CD9
:100E40002D2D2D2D207C207C20207C447C207C2D71
:100E50007C2D7C207C20202D2D2D7C20447C207C12
:100E6000557C6C7E207C557C207C2D2020202020F1
:100E7000202020207C2D7C2D20207C207C552020B3
:100E80007C2D2D2D7C2D2D7C202020202020207CB1
:100E9000207C2D2D2D2D2020202D2D2D7C207C7C87
:100EA000202020207C2020202020202055202020B1
:100EB0002020202020202020442D2D2D2D2D2D2DB3
:100EC0002D2D2D2D2D2D2D2D2D202044007C7C20F1
:100ED00020207C7C202D2D2D2D7C44202020204482
:100EE0007C447C7C2044207C7C207C7C207C202DCD
:100EF0007C207C202020207C7C2020207C7C207C6E
:100F00002D202D7C207C207C2D2D2D2D7C7A7C206D
:100F10007C2020207C2020207C2020207C7C447C85
:100F2000207C207C447C2D7C207C2020207C2D2D4E
:100F30002D207C207C207C207C2D7C447C207C20EF
:100F400020207C202020207C2020207C202020208D
:100F5000207C207C2D202D7C207C3D7C7C2D2D2018
:100F60002D2D2D2D2D2D7C207C7C447C7C207C2DDA
:100F70002D7C20202020202020202020207C2D2D92
:100F80002D7C2020202020202D2D003E003C0076AE
:100F9000005E0043002000230000000000003E5BD4
:100FA0004F5B3E3E6B4F6B3E1C3E7C3E1C183C7EB6
:100FB0003C181C577D571C1C5E7F5E1C00183C189B
:100FC00000FFE7C3E7FF0018241800FFE7DBE7FF97
:100FD00030483A060E2629792926407F0505074024
:100FE0007F05253F5A3CE73C5A7F3E1C1C08081CE5
:100FF0001C3E7F14227F22145F5F005F5F06097F23
:10100000017F006689956A606060606094A2FFA2BB
:101010009408047E040810207E201008082A1C086A
:10102000081C2A08081E101010100C1E0C1E0C3074
:10103000383E3830060E3E0E06000000000000006C
:101040005F00000007000700147F147F14242A7F2C
:101050002A122313086462364956205000080703F9
:1010600000001C2241000041221C002A1C7F1C2A77
:1010700008083E08080080703000080808080800CA
:101080000060600020100804023E5149453E0042C5
:101090007F400072494949462141494D3318141295
:1010A0007F1027454545393C4A49493141211109BD
:1010B000073649494936464949291E0000140000AF
:1010C00000403400000008142241141414141400C9
:1010D0004122140802015909063E415D594E7C1215
:1010E00011127C7F494949363E414141227F4141AD
:1010F000413E7F494949417F090909013E4141512A
:10110000737F0808087F00417F41002040413F0174
:101110007F081422417F404040407F021C027F7FB5
:101120000408107F3E4141413E7F090909063E41C6
:1011300051215E7F09192946264949493203017F19
:1011400001033F4040403F1F2040201F3F403840A8
:101150003F631408146303047804036159494D4341
:10116000007F4141410204081020004141417F04B9
:1011700002010204404040404000030708002054A0
:101180005478407F28444438384444442838444400
:10119000287F385454541800087E090218A4A49CCF
:1011A000787F0804047800447D40002040403D00E2
:1011B0007F1028440000417F40007C047804787C44
:1011C000080404783844444438FC182424181824AB
:1011D0002418FC7C08040408485454542404043F94
:1011E00044243C4040207C1C2040201C3C4030409B
:1011F0003C44281028444C9090907C4464544C44C7
:101200000008364100000077000000413608000267
:10121000010204023C2623263C1EA1A161123A4091
:1012200040207A3854545559215555794121545408
:101230007841215554784020545579400C1E527203
:1012400012395555555939545454593955545458DF
:101250000000457C410002457D420001457C40F094
:10126000292429F0F0282528F07C545545002054E5
:10127000547C547C0A097F493249494932324848F2
:101280004832324A4848303A4141217A3A42402075
:1012900078009DA0A07D39444444393D4040403D04
:1012A0003C24FF2424487E4943662B2FFC2F2BFF30
:1012B0000929F620C0887E09032054547941000092
:1012C000447D413048484A32384040227A007A0A08
:1012D0000A727D0D19317D2629292F2826292929D1
:1012E0002630484D40203808080808080808083803
:1012F0002F10C8ACBA2F102834FA00007B00000869
:10130000142A142222142A14089500220095AA00F7
:101310005500AAAA55AA55AA000000FF00101010F7
:10132000FF00141414FF001010FF00FF1010F01045
:10133000F0141414FC001414F700FF0000FF00FF69
:101340001414F404FC141417101F10101F101F1491
:1013500014141F00101010F0000000001F101010D7
:10136000101F10101010F010000000FF10101010CF
:101370001010101010FF10000000FF140000FF00FC
:10138000FF00001F10170000FC04F41414171017BE
:101390001414F404F40000FF00F7141414141414CB
:1013A00014F700F7141414171410101F101F14143E
:1013B00014F4141010F010F000001F101F000000B3
:1013C0001F14000000FC140000F010F01010FF10BB
:1013D000FF141414FF141010101F00000000F01070
:1013E000FFFFFFFFFFF0F0F0F0F0FFFFFF00000055
:1013F0000000FFFF0F0F0F0F0F38444438447C2AC2
:101400002A3E147E02020606027E027E02635549CF
:1014100041633844443C04407E201E2006027E0284
:101420000299A5E7A5991C2A492A1C4C7201724C05
:10143000304A4D4D303048784830BC625A463D3EC7
:10144000494949007E0101017E2A2A2A2A2A444468
:101450005F444440514A444040444A51400000FFE8
:101460000103E080FF000008086B6B083612362489
:1014700036060F090F0600001818000000101000B3
:101480003040FF0101001F01011E00191D1712004D
:101490003C3C3C3C000000000001020408102040DD
:1014A0008000D71B11241FBECFEFDAE0DEBFCDBF17
:1014B00011E0A0E0B1E0EAE1FAE302C005900D928C
:1014C000A435B107D9F726E0A4E5B1E001C01D922B
:1014D000A73BB207E1F71AE0C2E5DAE004C02197C2
:1014E000FE010E94EC1CC135D107C9F70E942015EE
:1014F0000C940B1D0C94000020915601211103C087
:101500008FEF9FEF08955FB7F89422E02093E900F2
:101510002091F20030E01216130614F421E030E0BE
:10152000422FFC0184E6415038F0289880936901ED
:101530009091F1009193F7CF2115310521F0809121
:10154000F200882319F05FBFC90108958BE68093EC
:10155000E800F9CF2FB7F89483E08093E9009091E9
:10156000E800892F807295FF04C09091F20080E41A
:10157000891B2FBF08958091610181110DC082E008
:1015800080935D0184E080935E011092600110926F
:101590005F0181E0809361018DE591E00895CF9333
:1015A000DF931F92CDB7DEB76983DC01ED91FC912B
:1015B0000280F381E02D41E050E0BE016F5F7F4F7C
:1015C00009950F90DF91CF91089583E08093E90012
:1015D0008091F200882319F08AE38093E80008954F
:1015E0000E94AA0A90E00895CF93DF931F92CDB78F
:1015F000DEB7FC018485958597FD05C02FEF3FEF91
:10160000358724870BC0CE0101960E947C0A019782
:1016100019F4898190E002C08FEF9FEF0F90DF9166
:10162000CF9108950F931F93CF93DF931F92CDB760
:10163000DEB78C01FC018485958597FF0EC0CE0135
:1016400001960E947C0A019719F4898190E002C0FA
:101650008FEF9FEFF80195878487F8018485958542
:101660000F90DF91CF911F910F910895FC01848518
:10167000958597FD0BC09FB7F89482E08093E900B1
:101680008091F2009FBF90E0019608959FB7F89473
:1016900082E08093E9008091F2009FBF90E008957E
:1016A0004091590150915A012091570130915801B0
:1016B00042175307B4F49091E8009570E1F39091CC
:1016C000E80092FD19C08093F1008091590190913A
:1016D0005A0101968F739927892B19F48EEF809305
:1016E000E8008091590190915A01019690935A0116
:1016F0008093590181E0089580E00895DF92EF9290
:10170000FF920F931F93CF93DF93D82E8A017B0113
:10171000E40EF51EEB01CE15DF0571F0D7FE03C018
:10172000FE01849101C088810E94500B2196811195
:10173000F2CF8FEF9FEF01C0C801DF91CF911F91D2
:101740000F91FF90EF90DF9008950F931F93CF9329
:10175000DF931F92CDB7DEB782E0898342E450E089
:1017600062EF76E080E80E947E0B0E94BB0ADC01FB
:1017700012960D911C9113970115110589F0D8014E
:10178000ED91FC910280F381E02DBE016F5F7F4FF0
:10179000C801099597FD04C0F80100851185ECCFBB
:1017A00089810F90DF91CF911F910F910895615022
:1017B00030F02091F100FC0120830196F8CF2898A9
:1017C00084E6809369010895CF93DF93BC01990F5C
:1017D000880B990B97FF03C00E94571203C04AE081
:1017E0000E94EB11EC010E94E3118C0F9D1FDF9111
:1017F000CF910895CF93DF930E943C12EC010E9499
:10180000E3118C0F9D1FDF91CF910895CF93DF934C
:101810001092460680917B05E0917A05F0E0EE0F8C
:10182000FF1FE659FA4F20819181A22FB92FA80FEF
:10183000B11DA80FB11DC1E8D5E020E030E060E0A7
:101840004EE557E0ED91FC911197E20FF31FE49103
:10185000E993ED91FC911197E20FF31F8491FA0146
:101860009491E82F880FFF0B892F90E0E817F90774
:1018700009F461E02F5F3F4F2D3B310519F760936D
:101880004506DF91CF910895EAE6F5E09789981330
:1018900001C0678B319696E0E732F907B9F70895F2
:1018A00080E0EAE6F1E081118FEF002481938193DB
:1018B000819381930394D1F70895EAE6F1E0A0E0E3
:1018C000B8E000800EBC8111012C1197A0FDFDCF66
:1018D0000192B9F70DB408951F920F920FB60F92AF
:1018E00011248F939F938091E1009091E100937F69
:1018F0009093E10083FF0FC01092E90091E0909374
:10190000EB001092EC0092E39093ED0010925601E0
:1019100098E09093F00082FF20C093E09093E9005C
:101920009091F200992319F09AE39093E800909136
:101930005C01992339F090915C01915090935C0186
:10194000992389F190916901992339F09091690166
:10195000915090936901992341F184FF10C08091C7
:10196000E2008E7E81608093E2008091E1008F7EB4
:101970008093E100809155018E7E806111C080FFCF
:1019800016C08091E2008E7E80618093E20080919B
:10199000E1008E7E8093E100809155018E7E816012
:1019A0008093550104C05D9ACDCF289AD6CF9F91E0
:1019B0008F910F900FBE0F901F9018951F920F924E
:1019C0000FB60F921124CF92DF92EF92FF920F93F6
:1019D0001F932F933F934F935F936F937F938F93B7
:1019E0009F93AF93BF93EF93FF93CF93DF93CDB7C5
:1019F000DEB76C97DEBFCDBF1092E9008091E800A2
:101A000083FFFBC168E0CE0145960E94D70B82EFB1
:101A10008093E8008D8987FF05C09091E80090FFD2
:101A2000FCCF03C09EEF9093E800982F907609F0CA
:101A3000C6C09E894F89588D2F89F88C91110CC092
:101A4000803829F4809154018093F10002C01092F3
:101A5000F1001092F10045C1913051F4811141C162
:101A60004130510509F03DC1809154018D7F0BC07B
:101A7000933061F4811135C14130510509F031C114
:101A8000809154018260809354012BC1953049F4B8
:101A90008091E80080FFFCCF822F80688093E30074
:101AA00020C1963009F05EC00B8D1C8D22E0109293
:101AB000E90010925A0110925901F21232C01092AC
:101AC0005801109257010E94A50B99E0BE016F5F6B
:101AD0007F4FDB01E92F1D92EA95E9F79983FA829E
:101AE00091E09E8390EA98879AEF99872091590117
:101AF00030915A01275F3F4F3C832B838D83109297
:101B0000E90010925A011092590110935801009364
:101B1000570149E050E080E00E947E0B0E94A50B37
:101B2000E0C010935801009357010E94BB0ADC01EA
:101B300012960D911C9113970115110509F4BBC064
:101B4000D801ED91FC910480F581E02DBE016B5E22
:101B50007F4FC8010995009709F0C7C0F8010085BB
:101B60001185EACF973009F445C1983021F481E01E
:101B70008093F100B6C0993009F0B3C0837009F0CA
:101B800039C1EFE0F1E081E031E096E320812111FD
:101B900009C08EE78093EA001092EA008F89809353
:101BA00056019FC08093E9003093EB002191209370
:101BB000EC009093ED008F5F873041F7EACF8B8D7B
:101BC0009C8D1092E90010925A0110925901909345
:101BD000580180935701898D811153C08E899D8949
:101BE000913A49F4813209F005C147E050E066E0DE
:101BF00071E080E0BBC0913209F0FCC0833269F42F
:101C00008F89988DA0E0B0E080930201909303014A
:101C1000A0930401B093050164C0803269F48091FF
:101C2000E80082FFFCCF67E086E091E00E94D70BDE
:101C30008BEF8093E80055C0823209F052C08F8943
:101C400080930D01EEEFFFE7859194918B3F9C4DC2
:101C500019F0E0E0F8E002C0EEEFFAE08091060152
:101C600090910701A0910801B0910901803B944037
:101C7000A105B10509F09EC080910D0180FF79C0DA
:101C800099C00E94BB0AFC01028113810115110554
:101C900009F4B0C0D801ED91FC910190F081E02DE4
:101CA000BE016B5E7F4FC801099581111AC0F80112
:101CB00000851185EBCFF1E0FF1609F44EC0F3E08B
:101CC000FF1298C08F89882309F44AC0823089F4B2
:101CD00040E867E086E597E00E94A21B882309F4AC
:101CE00089C08EEF8093E80088C018161906CCF3DF
:101CF00081C0813029F440E86BE08AE497E0ECCFC2
:101D0000833009F077C00E94BB0ADC011296ED9087
:101D1000FC9013978E010F5F1F4F6801E114F104CF
:101D200079F0D701ED91FC910680F781E02DB801A3
:101D3000C7010995080F111DF701E084F184EECF6A
:101D4000D8011C92F60101900020E9F73197BF01FC
:101D50006C197D0940E0C601BFCF68E377E002C09F
:101D600064E377E0FB01449150E080E80E947E0B41
:101D7000B8CFEE3F2AE0F20751F08081918187379A
:101D8000A7E79A0721F09093FF0A8093FE0A87E75E
:101D900097E7918380838091600080935B019BE053
:101DA00088E10FB6F894A895809360000FBE9093D9
:101DB000600097CF808191818737974709F091CF55
:101DC000A8958091600088618093600080915B019C
:101DD00080936000EE3FBAE0FB0739F08091FE0A85
:101DE0009091FF0A918380837CCF1092FF0A10921A
:101DF000FE0A77CF81E28093EB006C960FB6F894E1
:101E0000DEBF0FBECDBFDF91CF91FF91EF91BF91AC
:101E1000AF919F918F917F916F915F914F913F9182
:101E20002F911F910F91FF90EF90DF90CF900F9027
:101E30000FBE0F901F9018958F929F92AF92BF92F6
:101E4000CF92DF92EF92FF926B017C010E94B1145E
:101E50004B015C01C114D104E104F104F1F00E94D2
:101E6000B114DC01CB0188199909AA09BB09883E84
:101E70009340A105B10570F321E0C21AD108E10831
:101E8000F10888EE880E83E0981EA11CB11CC114D5
:101E9000D104E104F10419F7DDCFFF90EF90DF905A
:101EA000CF90BF90AF909F908F9008958F929F9208
:101EB000AF92BF92CF92DF92EF92FF920F931F9358
:101EC000CF93DF936C017B018A0180910D01882300
:101ED00009F45CC080915601882309F457C08091B1
:101EE000550180FF05C08091E00082608093E00092
:101EF000E801B12C8AEFA82E93E0892E2AE3922ED6
:101F0000209711F4BB20D9F10E94AA0A81110AC0BE
:101F1000AA94AA20D9F161E070E080E090E00E94EC
:101F20001C0FEECF282F30E0C217D3070CF48C2FF4
:101F30009FB7F8948092E9002091E80025FF1DC02A
:101F4000282F30E0C21BD30BF701815020F04191C4
:101F50004093F100FACFE20EF31EBB2019F09092ED
:101F6000E8000AC08091E80085FD07C09092E80073
:101F7000BB24B394209709F0B12C9FBFC1CF5D98CB
:101F800084E680935C011016110644F081E090E035
:101F9000F6019383828380E090E001C0C801DF9165
:101FA000CF911F910F91FF90EF90DF90CF90BF9056
:101FB000AF909F908F90089520915106282329F487
:101FC00090915006982381E009F480E008952F92C3
:101FD0003F924F925F926F927F928F929F92AF92B9
:101FE000BF92CF92DF92EF92FF920F931F93CF9306
:101FF000DF93CDB7DEB72A970FB6F894DEBF0FBEDA
:10200000CDBF5A01822E912C9401280F391F37FD24
:10201000BAC0803891050CF0B6C09B01200F311D6D
:1020200037FDB1C0603471050CF0ADC0AB0177FF76
:1020300004C044275527461B570B477055279B0163
:1020400077FF02C0295F3F4FE3E035952795EA957A
:10205000E1F777FF08C02150310968E070E0FB012B
:10206000E41BF50BAF01202E269426942694312CE8
:10207000077019F0FFEF2F1A3F0A220E331E3901A5
:102080007694762C662477946794680E791EE12CFA
:10209000F12C00E010E0B30160587F4F7A87698728
:1020A00068E070E0FB01E41BF50BFA83E98322167C
:1020B000330609F468C02830310509F464C02F3FA5
:1020C000FFEF3F070CF454C0E985FA85E00FF11FDC
:1020D000BF0166597E4F7C836B83D801A60DB71D67
:1020E000A659BE4F6C0160E070E0681579050CF0F0
:1020F0003FC0E0E8CE16D10409F43AC0D7FC2CC0AA
:102100002F3FFFEF3F0709F43AC0FB01EE0DFF1D23
:10211000EA0DFB1DE491042E01C0EE0F0A94EAF7CC
:10212000FC91EF2BEC9341155105B1F027303105AF
:1021300099F0FB01EE0DFF1DEA0DFB1DE4914E2E03
:10214000512C098002C0559447940A94E2F7EB8120
:10215000FC815080452840826F5F7F4FEB81FC817E
:102160003196FC83EB83FFEFCF1ADF0A1196BDCFC8
:102170002F5F3F4F00581F4FE80CF91C98CF4115B7
:102180005105B9F6E9CF2A960FB6F894DEBF0FBE17
:10219000CDBFDF91CF911F910F91FF90EF90DF9016
:1021A000CF90BF90AF909F908F907F906F905F90F7
:1021B0004F903F902F900895EF92FF920F931F93AF
:1021C000CF93DF937C018B01095F1F4FEB0177FFFA
:1021D00002C0C0E0D0E0C8010134110514F080E471
:1021E00090E0C817D9075CF480E8E816F10428F4F9
:1021F00040E0BE01C7010E94BA122196ECCFDF91E8
:10220000CF911F910F91FF90EF9008959C012B5F4C
:102210003F4F2538310570F5FC0197FF02C0E0E023
:10222000F0E006968138910514F080E890E08E1B6E
:10223000AB014770552721E030E001C0220F4A95DD
:10224000EAF7209577FF02C0695F7F4F93E07595AD
:1022500067959A95E1F77695762F66277795679536
:10226000E60FF71FE659FE4F815020F09081922330
:102270009193FACF089580E80E94DC0F882309F13A
:10228000E0917405E551F0E0E659FA4F87890E9424
:10229000D41381110DC0E1E9FFE0E491A091740530
:1022A000A551B0E0A659BA4F57968C918E1372C0C3
:1022B0002091760530E081E0273031050CF06BC0CD
:1022C00069C080E10E94DC0F882309F1E091740568
:1022D000EB5EF0E0E659FA4F87890E94D413811132
:1022E0000DC0EFE8FFE0E491A0917405AB5EB0E0B3
:1022F000A659BA4F57968C918E134CC020917605F3
:1023000030E081E0233331050CF445C043C080E266
:102310000E94DC0F8823E1F0E0917405F0E0E659BB
:10232000FA4F86890E94D41381110CC0EDE8FFE0BA
:10233000E491A0917405B0E0A659BA4F56968C91DD
:102340008E1328C081E090917505911124C022C0A0
:1023500080E40E94DC0F8823E9F0E0917405F0E04E
:10236000E659FA4F808D0E94D41381110CC0EBE81E
:10237000FFE0E491A0917405B0E0A659BA4F5896D9
:102380008C918E1307C02091750530E081E02837CD
:1023900031050CF080E0089588E00E94DC0F88236E
:1023A00031F084E090E09093400680933F0684E013
:1023B0000E94DC0F882331F083E090E09093400688
:1023C00080933F06089542E050E061E571E087E4C4
:1023D00096E00C9478128F929F92AF92BF920F93D7
:1023E0001F93CF93DF93CDB7DEB7A1970FB6F894C5
:1023F000DEBF0FBECDBF19A2423008F44AE08E0105
:102400000F5D1F4F842E912CA12CB12CA50194019E
:102410000E94AA1CE62FB901CA0101501109EA3035
:1024200014F4E05D01C0E95CD801EC93232B242B6C
:10243000252B61F70115110571F0F80101900020BD
:10244000E9F73197AF01401B510BB80187E496E0E3
:102450000E94781202C080E090E0A1960FB6F89436
:10246000DEBF0FBECDBFDF91CF911F910F91BF9007
:10247000AF909F908F9008950F931F93CF93DF930A
:102480008C01C0E0D0E0F801EC0FFD1F64916623E1
:1024900041F087E496E00E94D212892B11F0219638
:1024A000F2CFCE01DF91CF911F910F910895CF927E
:1024B000DF92EF92FF92CF93DF936B017C016DE28D
:1024C00087E496E00E94D212EC0166277727CB01C1
:1024D0006C197D098E099F094AE00E94EB118C0F4F
:1024E0009D1FDF91CF91FF90EF90DF90CF900895E7
:1024F000CF92DF92EF92FF920F931F93CF93DF93D0
:102500006C017A018B01C0E0D0E0CE15DF0581F0CF
:10251000D8016D918D01D601ED91FC910190F08172
:10252000E02DC6010995892B11F02196EECF7E0191
:10253000C701DF91CF911F910F91FF90EF90DF9036
:10254000CF9008950895089580E090E008950E9446
:10255000061D2D9A0895BC0180E090E00C941C0F9C
:102560008FB18095807F669B88601C9B84600895F6
:102570000C94941CE9E9F4E190E1969FD001A078D5
:102580001124A80F6770E60FF11D9491A659BE4F54
:10259000442319F08C91982B03C090958C9198232B
:1025A0009C9308952F923F924F925F926F927F92E9
:1025B0008F929F92AF92BF92CF92DF92EF92FF9253
:1025C0000F931F93CF93DF93CDB7DEB727970FB647
:1025D000F894DEBF0FBECDBF9F838E836A30A1F417
:1025E000DC0155962C91559751968D919C9152975F
:1025F000B8E02B9F800D911D1124EE81FF81928BFD
:10260000818B108A1786B5C06D3009F4B2C0AE81D7
:10261000BF811F960D911C91509700381105BCF099
:10262000EE81FF812589422F50E087859089F6E071
:102630002F9F800D911D1124AE81BF8150969C93D8
:102640008E931F9756962C9121117DC092C0EE81DA
:10265000FF8181889288F0E48F1691040CF7AE8197
:10266000BF8155963C90C801B5E03B9E800D911D01
:10267000112418161906A4F6432C512CC401E8E0C5
:102680003E9E800D911D1124181619064CF6AE8140
:10269000BF815496BC91BC83EE81FF81F389FD8399
:1026A00025E0629FB0011124CB018756904F3C0179
:1026B0001982F3012490F981F53009F4212C540199
:1026C00028E02B8320FE03C03D813A8302C08C8129
:1026D0008A839A81911104C0AC81BD81AB17F9F056
:1026E00078018E2D801B8315D0F465018C2D8A19FD
:1026F000831588F4E0E8EE16F10448F4F0E4CF1610
:10270000D10428F44A81B601C7010E94BA122FEF02
:10271000C21AD20AEBCF3FEFE31AF30AE2CF2694B4
:102720008B8181508B83A40CB51C8111CBCF9981F7
:102730009F5F9983040D151DD30111963D019630BD
:1027400009F0B7CF6DCF6AEF64039001659F300D3C
:10275000112420583F4F281739075CF4AE81BF8100
:10276000ED91FC9111970190F081E02D6AE0CD018F
:10277000099581E090E027960FB6F894DEBF0FBE72
:10278000CDBFDF91CF911F910F91FF90EF90DF9020
:10279000CF90BF90AF909F908F907F906F905F9001
:1027A0004F903F902F900895282F880F330BE7E923
:1027B000FFE0E491F0E02E173F0709F445C0EEE595
:1027C000F7E0E491F0E02E173F0709F43DC0E9E699
:1027D000F2E0E491F0E02E173F0709F435C0EBE694
:1027E000F2E0E491F0E02E173F0709F42DC0E7E690
:1027F000F2E0E491F0E02E173F0731F1E5E6F2E078
:10280000E491F0E02E173F07F9F0E3E6F2E0E491FF
:10281000F0E02E173F07C1F0E5E9FFE0E491F0E0BA
:102820002E173F0789F0EFE6F2E0E491F0E02E1773
:102830003F0751F0EDE6F2E0E491F0E081E0E217CD
:10284000F30719F080E0089581E00895EF92FF9278
:102850000F93CF93DF937C01C0E0D0E007E026E048
:1028600047ED52E0BE01C7010E94E70F2796CF3324
:10287000D105A1F7DF91CF910F91FF90EF900895CF
:10288000282F30E065E10E94CC1CA901491B5109A9
:10289000CA0165E170E00E94D81C87E0869F802D08
:1028A00011240895853170F08A3218F490E045972C
:1028B00009C08F3318F490E08A9704C0843530F44F
:1028C00090E0CF97982F990F890F2FC0893630F459
:1028D00092E0899F800D11248C5F27C08E3730F4E1
:1028E00092E0899F800D11248B531FC0833930F4EF
:1028F00092E0899F800D11248A5717C0883A30F4DE
:1029000092E0899F800D1124895B0FC08D3B30F4CC
:1029100092E0899F800D1124885F07C0823D38F4C2
:1029200092E0899F800D11248753880F08950895A0
:10293000EF92FF920F93CF937C01C0E08C2F0E9407
:10294000521407E026E047ED52E0B70190E00E9404
:10295000E70FCF5FC63191F7CF910F91FF90EF90C6
:1029600008953FB7F8948091B3069091B406A09172
:10297000B506B091B60626B5A89B05C02F3F19F045
:102980000196A11DB11D3FBFBA2FA92F982F8827EF
:10299000820F911DA11DB11DBC01CD0142E0660F4A
:1029A000771F881F991F4A95D1F708951F920F929C
:1029B0000FB60F9211242F933F938F939F93AF9352
:1029C000BF938091AE069091AF06A091B006B091F2
:1029D000B1063091B20623E0230F2D3720F4019683
:1029E000A11DB11D05C026E8230F0296A11DB11D32
:1029F0002093B2068093AE069093AF06A093B006E4
:102A0000B093B1068091B3069091B406A091B5063B
:102A1000B091B6060196A11DB11D8093B3069093A7
:102A2000B406A093B506B093B606BF91AF919F913F
:102A30008F913F912F910F900FBE0F901F9018957F
:102A4000789484B5826084BD84B5816084BD85B589
:102A5000826085BD85B5816085BD80916E00816095
:102A600080936E001092810080918100826080933B
:102A7000810080918100816080938100809180003D
:102A800081608093800080919100826080939100AA
:102A9000809191008160809391008091900081608D
:102AA000809390008091C10084608093C1008091E8
:102AB000C10082608093C1008091C10081608093D9
:102AC000C1008091C30081608093C3008091C000E9
:102AD00082608093C0008091C20081608093C200B8
:102AE00080917A00846080937A0080917A0082607D
:102AF00080937A0080917A00816080937A0080913F
:102B00007A00806880937A001092560110925401E6
:102B1000109255018091D70081608093D70080EAA0
:102B20008093D80089B5806189BD89B5826089BDEF
:102B300009B400FEFDCF61E070E080E090E00E940B
:102B40001C0F8091D8008F7C80618093D800809189
:102B5000E000807F8093E0008091E1008E7E809392
:102B6000E1008DE08093E200559A209A81EC8093F9
:102B70007C0085B1806F85B984B1877E84B984B1CA
:102B8000876E84B95E9A5F988AB1806D8AB9769AA9
:102B90006E9881B3806F81BB899880B38D7080BB44
:102BA00080E58CBD81E08DBD85E090E00E94AB1298
:102BB0005F9A85E090E00E94AB125E985C98ECE62C
:102BC000F1E089E791E024912EBD00000DB407FEED
:102BD000FDCF31968E179F07B1F75C9A81E88093FD
:102BE00064008091650081608093650080E00E94B0
:102BF0005D0C0E94B01287FF24C05C9885EA8EBDF0
:102C000000000DB407FEFDCF5C9A2E982F982D98EA
:102C10008091640080628093640081E083BF889526
:102C200013BEFCCF2D980E94B0128478843871F0C6
:102C30000E94B0128471843131F188EC90E00E94DE
:102C4000AB120E94B01282FDEDCF3AC00E94A912D1
:102C500088EC90E00E94AB122F9882E090E00E94F6
:102C6000941C8F3F29F06FEF82E090E00E949C1C43
:102C700084EF91E00E94AB122F9A0E94B0128478E8
:102C80008438D9F3D5CF0E94A91288EC90E00E9435
:102C9000AB122E9882E090E00E94941C882329F0C9
:102CA00060E082E090E00E949C1C84EF91E00E9432
:102CB000AB122E9A0E94B01284718431D9F3BDCF29
:102CC0000E94A91282E090E00E94B812882319F0B5
:102CD0003E9A3F9A02C03E983F9881E090E00E9461
:102CE000B812182F147081FF39C011112E98C0EF3F
:102CF000DFEF0E94B01286FF05C02E9A2F9A0E9425
:102D0000A9122CC0112329F0C430D10511F42E9A38
:102D10002F9881E00E945D0C00E128E54CEB50E02B
:102D2000BE0184E190E00E94E70F80E00E945D0C0C
:102D30008FE090E00E94AB122196C931D105C9F60F
:102D4000112311F02F9A2D9880E991E00E94AB1287
:102D50000E94A91287E496E00E944F1C82E390E053
:102D60000E94AB120E94B0128111F8CF81E28093D1
:102D700052060E94500C109259061092580610925A
:102D800057061092560654E1E52EF12C8FB7F894B1
:102D90004091AE065091AF066091B0067091B106B9
:102DA0008FBF80915306942F981B892F90915406C2
:102DB000992329F08093550610925406ACC1909146
:102DC0005206891748F48F5F891708F0A4C181E083
:102DD00083BF889513BE9FC181E0809354064093C2
:102DE000530680914E0690914F06019690934F06A0
:102DF00080934E0680915006809351060E94B01237
:102E0000809350060E94500C10925906109258065A
:102E10001092570610925606C0913F06D091400678
:102E2000C830D10508F074C1FE01EA5AFF4F0C9476
:102E3000EC1C00E420E840EF52E060E070E080E04D
:102E400090E00E94E70F88E00E94DC0F882309F4DD
:102E50005FC182E090E037C184E00E94DC0F8823EC
:102E600009F456C11092400610923F0651C189EEF6
:102E700092E00E943C126091000170910101FB01FF
:102E8000EF5BF94F8081882321F0CB010E94E40B96
:102E900010C0072E000C880B990B97FF03C00E94EF
:102EA000571203C04AE00E94EB1181EE92E00E94AB
:102EB000FA0B80E80E94DC0F882349F08091000122
:102EC000909101010197909301018093000180E1AD
:102ED0000E94DC0F882349F080910001909101014C
:102EE00001969093010180930001809100019091DF
:102EF00001011816190634F084E090E09093010166
:102F0000809300018091000190910101059734F0B8
:102F100081E090E0909301018093000188E00E949D
:102F2000DC0F882309F4F4C0809100018150809364
:102F30007A050E94060CC5C081E8C82E85E0D82E0F
:102F400010E091E9A92E9FE0B92E2FE8822E2FE004
:102F5000922E35E9432E32E0532E4DE8642E42E0A6
:102F6000742EF60101916F01802F002E000C990B39
:102F7000EFEDF2E0249130E08217930709F4D3C01B
:102F8000EDEDF2E0249130E08217930709F081C261
:102F9000CAC00E94CC1180917C05882351F000E1C9
:102FA00020E141E452E068E270E080E590E00E94B8
:102FB000E70F80917D05882351F000E120E141E297
:102FC00052E064E170E080E590E00E94E70F8091BC
:102FD0007E05882351F000E120E141E052E065E008
:102FE00070E080E590E00E94E70F80917F058823E4
:102FF00051F000E120E141EE51E06EE170E084E645
:1030000090E00E94E70F80918005882351F000E155
:1030100020E141EC51E06EE170E08CE390E00E9431
:10302000E70F80E090E00E94261488E790E00E947D
:10303000261480E090E00E94981488E390E00E94BB
:103040009814C8E0D0E0D0935706C0935606D093AA
:103050005906C093580689EB91E00E943C1280917A
:103060007A0590E001960E94E40BD0935706C09336
:10307000560680E190E0909359068093580681EBC4
:1030800091E00E943C1260917B0570E080E090E04E
:103090004AE00E94EB110E94E3113AC080EA91E0FD
:1030A0000E943C1280917A0590E001960E94E40B08
:1030B00081E991E00E94FA0B88E00E94DC0F8823EE
:1030C00039F183E090E09093400680933F0620C062
:1030D000F0925706E0925606F0925906E092580692
:1030E00081E891E00E94FA0BF0925706E0925606B2
:1030F0008EE190E0909359068093580689E791E01D
:103100000E943C1280917705909178050E94E40B13
:1031100080E00E945D0C80E090E0892B09F436CEBF
:103120000E94000033CE812F0E944014082F812F6F
:103130000E945214602F70E007E026E047ED52E055
:1031400090E00E94E70F17C0812F0E944014382E94
:10315000812F0E94521490E0909357068093560658
:10316000832D90E09093590680935806602F87E452
:1031700096E00E94D2121F5F1D3B09F0F2CE109123
:103180007405812F0E944014B82EC82ED12C812F97
:103190000E945214082F10E0FFE3FB1520F0B60147
:1031A000C8010E940611B6016A5F7F4F6034710545
:1031B0001CF4C8010E940611B601C8010E94DC106F
:1031C000B601C80105960E94DC1010917405812F8C
:1031D0000E944014082F812F0E945214602F70E02B
:1031E00007E026E041E752E090E00E94E70F0E94EE
:1031F0003B11882309F463C081E08093790580E85E
:103200000E94DC0F882399F0809176058650809388
:1032100076058091740585518093740580917705BA
:10322000909178050196909378058093770580E1D9
:103230000E94DC0F882399F0809176058A5F809345
:103240007605809174058B5E809374058091770577
:10325000909178050196909378058093770580E2A8
:103260000E94DC0F882399F0809175058650809329
:103270007505809174058150809374058091770560
:10328000909178050196909378058093770580E476
:103290000E94DC0F882399F0809175058A5F8093E6
:1032A0007505809174058F5F809374058091770513
:1032B00090917805019690937805809377050E9408
:1032C0003B11882329F1EEE5F7E0E491A091740524
:1032D000B0E0A659BA4F57968C91082E000C990B66
:1032E000F0E08E179F07A1F480914606882309F429
:1032F000ECC11092460680914606882309F4E9C184
:10330000EDE7F2E06491E5E8F2E084910E94440C7C
:10331000EFE6F2E0E491A0917405B0E0A659BA4F4F
:1033200057968C91082E000C990BF0E08E179F0792
:1033300069F480917905882349F01092790580918C
:103340007B05815080937B050E94060CEDE6F2E040
:10335000E491A0917405B0E0A659BA4F57968C91AC
:10336000082E000C990BF0E08E179F0769F48091EE
:103370007905882349F01092790580917B058F5F4C
:1033800080937B050E94060CE0917405F0E0E659FD
:10339000FA4F8789082E000C990BEBE6F2E0E491D6
:1033A000F0E08E179F0709F49AC1E9E6F2E0E49194
:1033B000F0E08E179F0709F495C1E7E6F2E0E4918B
:1033C000F0E08E179F0709F490C1E5E6F2E0E49182
:1033D000F0E08E179F0709F48DC1E3E6F2E0E49177
:1033E000F0E08E179F0709F483C180917C05882344
:1033F00081F080917D05882361F080917E0588238E
:1034000041F080917F05882321F080918005811112
:1034100076C10E94CC1180917C05882341F0E1E6C1
:10342000F2E06491EDEAF2E084910E94440C809114
:103430007D05882341F0E1E6F2E06491E5EAF2E0FF
:1034400084910E94440C80917E05882341F0E1E63E
:10345000F2E06491EDE9F2E084910E94440C8091E5
:103460007F05882341F0E1E6F2E06491E5E9F2E0CE
:1034700084910E94440C80918005882309F448CEF1
:10348000E1E6F2E06491EDE8F2E084910E94440C00
:103490003FCEE5EDF2E0249130E08217930771F41E
:1034A000812F0E944014082F812F0E945214602FF8
:1034B00070E007E026E04FEC52E042CEEDECF2E0A7
:1034C000249130E08217930771F4812F0E944014F9
:1034D000082F812F0E945214602F70E007E026E031
:1034E00047EC52E02DCEEDE8FFE0249130E082176A
:1034F000930771F4812F0E944014082F812F0E949E
:103500005214602F70E007E026E041EC52E018CE44
:10351000EBE8FFE0249130E08217930771F4812FEC
:103520000E944014082F812F0E945214602F70E0D7
:1035300007E026E04BEB52E003CEF501249130E0AA
:103540008217930709F488C0F401249130E08217B0
:10355000930709F46DC0EDEAF2E0249130E08217A0
:10356000930771F4812F0E944014082F812F0E942D
:103570005214602F70E007E026E047EA52E0E0CD09
:10358000E5EAF2E0249130E08217930771F4812F8D
:103590000E944014082F812F0E945214602F70E067
:1035A00007E026E04FE952E0CBCDEDE9F2E02491CF
:1035B00030E08217930771F4812F0E944014082F86
:1035C000812F0E945214602F70E007E026E047E947
:1035D00052E0B6CDF201249130E08217930771F4E6
:1035E000812F0E944014082F812F0E945214602FB7
:1035F00070E007E026E04FE852E0A2CDF30124910D
:1036000030E08217930771F4812F0E944014082F35
:10361000812F0E945214602F70E007E026E047E8F7
:1036200052E08ECDF401249130E08217930771F4BB
:10363000812F0E944014082F812F0E945214602F66
:1036400070E007E026E04FEA52E07ACDF5012491E0
:1036500030E08217930771F4812F0E944014082FE5
:10366000812F0E945214602F70E007E026E045EBA6
:1036700052E066CDE5E8F2E0E491F0E08E179F07B6
:1036800071F4812F0E944014082F812F0E94521440
:10369000602F70E007E026E04FE752E051CDEDE704
:1036A000F2E0E491F0E08E179F0709F04DCD812FF5
:1036B0000E944014082F812F0E945214602F70E046
:1036C00007E026E047E752E03BCD81E080934606E5
:1036D00012CEE5E8F2E06491EDE7F2E016CEC1E04B
:1036E000D0E008C0C2E0D0E005C0C0E0D0E002C039
:1036F000C4E0D0E0C659DA4F81E08A8B76CE89E407
:10370000809374058CE38093750585E1809376053D
:1037100010927C0510927D0510927E0510927F0517
:103720001092800510927B0580917A058F5F8093BF
:103730007A050E94060C87E090E090934006809303
:103740003F0667CEDF92EF92FF920F931F93CF93C6
:10375000DF93D82EF92EE42E062F10E0C801019633
:10376000880F0E94500B83E00E94500BCD2DDF2D5F
:103770000C0F1D1FC017D10789F0E7FE03C0FE0123
:10378000849101C088810E94500BF82E80E00E9435
:10379000500B8F2121968111EDCF01C081E0DF9187
:1037A000CF911F910F91FF90EF90DF900895CF93ED
:1037B000EEE5F6E01382128288EE93E0A0E0B0E03E
:1037C00084839583A683B78389E191E09183808385
:1037D0008FEF9FEF95878487EAE6F5E088E0DF01C9
:1037E0001D928A95E9F787E391E0918380838DE2CA
:1037F00091E09383828387E291E09583848389E4D7
:1038000082878CE3838785E18487168615861786F1
:1038100083E99FE091878087108A118A85E0ECE731
:10382000F5E0DF011D928A95E9F78EEBE1E8F5E01E
:10383000DF011D928A95E9F71092400610923F062B
:10384000E1E4F6E01082118212821382C1E0C083AB
:10385000C0934206C0934306109245061092460656
:103860000E94060CE7E4F6E01382128211861286AB
:1038700080E1838710861782158681E491E0918329
:1038800080838FE491E095838483108A1786128A5F
:10389000118AC38B148AC58B168ACF9108950F9312
:1038A0001F93CF93DF938C0181E090E00E94B812C8
:1038B00080FF32C08AE090E00E94B8129FEF980F1C
:1038C0009E3F50F522E330E0D80150963C932E9372
:1038D0001F9728E330E052963C932E935197CBE00C
:1038E000D0E0D801ED91FC910190F081E02D682F9E
:1038F000C8010995CE010E94B8122196C131D105A7
:1039000081F780E00E945D0C88EE93E0DF91CF911B
:103910001F910F910C94AB12DF91CF911F910F91DA
:10392000089504970C944F1CF999FECF92BD81BD68
:10393000F89A992780B50895262FF999FECF1FBAD6
:1039400092BD81BD20BD0FB6F894FA9AF99A0FBEC8
:1039500001960895A1E21A2EAA1BBB1BFD010DC002
:10396000AA1FBB1FEE1FFF1FA217B307E407F5072F
:1039700020F0A21BB30BE40BF50B661F771F881F0B
:10398000991F1A9469F760957095809590959B01A1
:10399000AC01BD01CF010895991B79E004C0991FC6
:1039A000961708F0961B881F7A95C9F78095089599
:1039B00097FB072E16F4009407D077FD09D00E94DC
:1039C000F21C07FC05D03EF4909581959F4F089519
:1039D000709561957F4F0895EE0FFF1F0590F4914C
:1039E000E02D0994AA1BBB1B51E107C0AA1FBB1FF6
:1039F000A617B70710F0A61BB70B881F991F5A957B
:103A0000A9F780959095BC01CD01089581E090E0E3
:0A3A1000F8940C940B1DF894FFCFFE
:103A1A000100FFFFFFFF00E100000000000000C1FD
:103A2A00808100000000000000CF0A560FF00AE56E
:103A3A000A360BF40A120BDC081E086007920CD433
:103A4A000B160B580A9A09CD0E0F0E510D000000E5
:103A5A0000D2127812A412A3124F1CFCFF0000918C
:043A6A001C0D0A0025
:00000001FF
