:100000000C94AA0A0C94D20A0C94D20A0C94D20A28
:100010000C94D20A0C94D20A0C94D20A0C94D20AF0
:100020000C94D20A0C94D20A0C94B80C0C942A0D9D
:100030000C94D20A0C94D20A0C94D20A0C94D20AD0
:100040000C94D20A0C94D20A0C94D20A0C94D20AC0
:100050000C94D20A0C94D20A0C94D20A0C94B012CA
:100060000C94D20A0C94D20A0C94D20A0C94D20AA0
:100070000C94D20A0C94D20A0C94D20A0C94D20A90
:100080000C94D20A0C94D20A0C94D20A0C94D20A80
:100090000C94D20A0C94D20A0C94D20A0C94D20A70
:1000A0000C94D20A0C94D20A0C94D20A4517581711
:1000B0006317CA17FA179F187F186518F0F89C8EF7
:1000C0008783878E9CF8F00000FEFF030303030381
:1000D000070EFCF80000FEFF0303030303070EFCFA
:1000E000F80000FFFF00000000000000FFFF00001C
:1000F000FEFF8383838383C7EE7C380000F8FC0E09
:1001000007030303070EFCF800003F7FE0C0808078
:10011000C0E07F3FFFFF01010101010101FFFF007E
:1001200000FFFF0C0C0C0C1C3E77E3C100007FFFAE
:10013000C0C0C0C0C0E0703F1F00001F3F70E0C0E3
:10014000C0C0E0703F1F00007FFFC1C1C1C1C1E35B
:10015000773E1C00001F3F70E0C0C0C0E0703F1F32
:10016000000000000001FFFF01000000D5F08D1429
:10017000A1C881CFD9F1AF200053746570733A20C4
:1001800000594F552057494E20464F52204E4F5749
:10019000004120746F20636F6E74696E75652E0068
:1001A000456E746572696E67204C6576656C3A20A1
:1001B00000466C6F6F723A20004C6576656C3A2091
:1001C000000000000050E020909020E070180C0427
:1001D00000002030180D0B040908040B0500000076
:1001E00000000000000000000000B0A828A8B00037
:1001F00000000016150515160000000000000000A4
:100200000000007088B87878787878707060C000E6
:100210000000000000000119051D19010101000086
:1002200000000000000000FC02FEFC0000000000D6
:10023000000000000000403F403F7F000000000041
:100240000000C03008C4245292925224C40830C026
:100250000000030C1023244A49494A2423100C03AC
:100260000020007A003D006F007E006C00440055C5
:100270000023002A00400000281A28000000021E67
:100280001010007A000010100404003D00001C1C37
:100290001808007E000010300C02006C00001C22C8
:1002A0002A1C006F00730C70700C73671807071816
:1002B00067000822140800000814220800003E14F9
:1002C000143E005500003E3A223E00440000333008
:1002D0001703317C002D00204C6F636B6564004C6C
:1002E0006576656C200080400000003078CC783066
:1002F00040E0B0E040000080808080C0C0C08080CE
:10030000800103000B051C0428352C42447A981800
:10031000A0042CBC0BA3C7B2343D10A28B7777602E
:10032000E0B7B71B30D82AC6C240991B7B21934146
:10033000ED22C6C040111B59291141452A44824073
:1003400099113B018241A800C64000110A112811F1
:1003500000012A44820088002A008200A8000200CE
:10036000000002000800000000000000007EE0C065
:10037000C0F80D0060FC8E738D257596AA4A1AF69A
:100380000D9B66F800000000000000000001030162
:10039000050700050A19055B2EE62041AF671660C8
:1003A000D1C641860461A8190A01646EEE264D0586
:1003B000B420190801446ECCA645051428118A41C1
:1003C00024A452A8C8E9C8F4E4F4F4E8E8E8D2A503
:1003D000A04048800A002044AA000800A0000000B5
:1003E00000002200800000000000000000EF5F1FFE
:1003F000BF3F3E78787B776C696A6A6AFA727B7570
:10040000FA7DBA3938D8280000000000000000004A
:1004100000000000000000000000000101010202D5
:100420000B100A2D380110170B253218291026152C
:10043000131017092510180918049540A05798D6CD
:10044000EFC6EFC7E3D1E3D1E0D1A0810307070FE7
:100450001F3FFFFEFDFAF4E8D020C20002000200B8
:1004600020000000080000000000000000039FC002
:1004700080077E078100E0039F00833E03C0CFC159
:1004800080071F000001000CFCFC3CFCF080C0F069
:10049000781CFCFCFC0C00000080E07C3CFCF8C0FC
:1004A000000000003C1C8CCCFC7C3C0C000CFCFCD8
:1004B000FCCCCCEC0C1C000000C72855AA47EFE789
:1004C00077BBDDCD1585858585898100000000001D
:1004D000000000FFFFFFFFFFFFFFFEFD020C1020EA
:1004E000408000000000000000000000FCFE57BB40
:1004F000BF8F878301007F807F00013A2AAAAA2A42
:100500002956EC00000000989F9F98818F9F8F03D1
:1005100000189F9F9F9800989C9F9B03839B9F9F81
:100520001E1880989E9F1F9998989C1F00989F9FC7
:100530009F189899989C9F8080800102848588925A
:10054000979389840300000000000001E11EA07061
:10055000F87EFF7F7F3F9F43A7CFA7D1EAF5FAFE42
:100560005C08916A04000000000000001F3FF1EEEB
:10057000CAAA6AEA6AE46060606070381C8FC7E0EB
:10058000F03F1F0000000000FFFF103070F8CF8F19
:10059000000000FFFF000000FFFF000000FFFF035E
:1005A0000F3CF0FFFF000000FFFF030F3CF0FFFFD8
:1005B000000000FFFF08081C81E3620000FFFF103D
:1005C0003070F8CF8F000000000000000102040925
:1005D0000A090808040910252B272F272F170B13AA
:1005E0001110211E00000000C040C04040808081EA
:1005F0000143C7C747C647468686860747C3C141EA
:10060000C040408080800041C1C141C040408181E4
:10061000810040C0C141C141418080800141C1C1D0
:1006200040C040418180800141C1C140C040418102
:1006300080800141C1C141C141418080810141C1EE
:10064000C040C041418180800040C0C040C04040A7
:100650008080800040C0C040C0404080808000401A
:10066000C0C040C0404080809E8A64503B0A71B048
:100670005026869E8A64503B0A71B05026869E8A18
:1006800064503B0A71B05026869E8A64503B0A71C2
:10069000B05026869E8A64503B0A71B05026869ED2
:1006A0008A64503B0A71B05026869E8A64503B0A89
:1006B00071B05026869E8A64503B0A71B0502686DF
:1006C0009E8A64503B0A71B05026869E8A64503BD5
:1006D0000A71B05026869E8A64503B0A71B050263B
:1006E000869E8A64503B0A71080B000202020100D8
:1006F0000904000001020200000524001001052485
:1007000001010104240206052406000107058103F6
:1007100010004009040100020A000000070502025F
:100720004000000705830240000004030904120191
:100730000002EF0201404123368000010102030163
:1007400041726475696E6F204C4C43004172647550
:10075000626F79007C203C3C3C3C207C2D2D2D2D73
:100760002D2D2D2D2D2D2D2D7C7C207C6C3C3C2089
:10077000203E3E3E3E3E3E3E3E3E20207C7C2020B3
:100780007C203E3E552020203C207C762D2D7C7CFC
:10079000207C7C207C3E762D2D2D2D7C2076767C39
:1007A000202D2D7C7C557C7C207C3E762D2D2D2D86
:1007B0007C2020203C2020207C2D2D2D7C20203EC4
:1007C000203C7C20203E3E3E3E3E207C207C55202E
:1007D0002020207C7C767C7C55203E3E3E3E202D99
:1007E0007C6F7C2D2D2D202D2D7C20202020203E47
:1007F0003E3E20202D7C2D7C202020202D2D7C2D68
:100800002D7C203C3C3C3C3C2020202020202D2DD9
:100810005500207C20202020202020202020202067
:10082000557C207C202055207C5E2D2D2D2D2D2DBE
:100830007C207C7C20207C207C767C20207C5E20A0
:100840002020442D2D7C207C2D7C207C207C207C35
:100850005E207C5E2D2D2020202020552020202071
:1008600020207C442020207C5E5520202D2D2D7CB6
:10087000207C202020207C2D2D2D2D207C2D2D2D09
:100880002D2D2D2D7C207C2D2D2D2D7C4420205593
:10089000207C207C202044202020203C207E5520CD
:1008A0007C2D2D2D2D557C207C202D2D2D2D7C203B
:1008B0007C2D2D2D2D7C202020202D7C557C55201D
:1008C0003C20202020202020202020202D2D4400EE
:1008D0002020202020202020202020202020447C98
:1008E000447C207C44207C207C2D2D2D2D2D2D5EC4
:1008F0002D2D20207C207C2D7C20447C202020203D
:1009000020207C2020207C2D2D7C207C2D7C202DE7
:100910002D7C2D2D2D7C203C2020203E20202020B1
:1009200020202020207A7C44202020207C20202091
:100930007C2D2D2D2D2D2D7C7C203E202D2D7C2DB4
:100940002D2D2D762D2D2020207C3D7C2044207CBB
:100950002020207C2D2D7C2020207C2044207C20E9
:100960007C207C207C207C2020202020207C2020BB
:100970002020207C2020207C2D7C447C442D2D2D8B
:100980002D2D7C2D2D2D2D2D7C2D2D2D7C007C2095
:100990002020202020202020202020202020207CFB
:1009A000207C557C207C2D2D2D2D7C7C202D2D2DEB
:1009B0002D2D7C557C557C207C207C552020207C56
:1009C00020207C202020207C207C207C207C207CFF
:1009D0002D2D2D207C202D7C207C2D207C207C200A
:1009E0007C207C202020207C207C20207C207C20DF
:1009F000207C207C207C202D2D2D7C207C207C2D9B
:100A00002D2D207C207C20207C207C20207E207CA2
:100A1000207C2020202020207C7C2D2D2D7C207CE3
:100A200020206C5F7C207C2D2D2D2D2D2D7C7C3D60
:100A30002020202D7C202D6F207C557C2020207CA8
:100A40005520202020202020202020006C7C5520B4
:100A5000207C2D7C2D2D2D7C20207C202D7A207C2F
:100A600044202D7C2D207C207C5520207C20207C47
:100A700020447C557C2020207C44207C2D7C2D7CB7
:100A8000207C2D2D7C207C2D7C7C202D207C2D2DF0
:100A90002D2D2D2D7C20202020202020207C552035
:100AA00020207C20207C202020202D2D7C207C20BC
:100AB0007C207C2D2D207C2D2D2D20207C7C202029
:100AC0002020207C207C2020207C207C5520202081
:100AD0007C7C2D2D2D2D7C207C2D2D2D2D557C20AD
:100AE0007C2D2D2D2D7C7C202020202020202020BE
:100AF000207C2D7C557C207C4420202020204420FC
:100B000020207C207C20202055002020447C202098
:100B100020207C2D7C2D2D2D2D2D2D7C2D2D7C20F0
:100B20002D7C7C2D2D2D7C44207C202020552020C8
:100B30007C44207C2020207C6F20207C7C20202076
:100B4000207C2D2D20207C207C7C2D207C2D7C2049
:100B50007C2D2D2D2D207C202020207C447C2020CD
:100B6000207C207C207C20552020207C207C7C2028
:100B70002D2D2D202D7C2D2D7C557C207C2D2D2D5B
:100B80002D207C7C2020207C20204420207C2D7C5B
:100B9000202020202020207C7C557C447C2D2D2D65
:100BA0002D2D2D2D2D2D2D2D2D2D2D2D2D2D2D2D75
:100BB0002D2D4420202020202020202020202020F7
:100BC0002020202020204400552D2D2D2D2D2D2D91
:100BD0002D2D2D2D2D7C20202020207C55202020E7
:100BE000202020202020202020207C447C2D2D200F
:100BF0007C202D2D2D207C7C207C7C2D2D7C202D7F
:100C00002D7C2D7C207C20202020202D7C207C7C95
:100C10002D2D2D202020202020207C20207C2D7C8C
:100C20002D7C207C7C44207E7C207C202D20202D4F
:100C300020207C2020207C447C7C2D2D2D7C7C7CE5
:100C400020202D20202020202020207C207C2D7C76
:100C50007C2D2D2D7C2D7C442D2D2D7C2D2D7C202F
:100C60007C2D7C7C20202020207C2D7C202020209E
:100C7000552020202020202020207C557C20202052
:100C8000202020202000442020207C2D2D2D2D2DC3
:100C90002D2D2D2D2D2D20202020442D2D7C20206C
:100CA0002020202020202020202020207C2D2D2DC1
:100CB00020207C207C2D2D2D2D7C207C2D2D2D7C0D
:100CC000207C2020207C2020207C20202020202010
:100CD00020202020202020207C2D7C207C207C2097
:100CE0007C2D2D7C207C2D2D2D2D7C207C20207C8E
:100CF000207C2020202020207C207C202D2D2D7C5D
:100D0000207C2D2D20207C2D2D2D2D2D2D7C207C0B
:100D1000202020202020202020207C2020207C201B
:100D2000202020207C2D7C207C2D7C207C2D4420AC
:100D30002020202020207C207C44202020202020D7
:100D400020202020002D2D2D2D2D2D2D2D2D2D7CE5
:100D5000202020202020202020207C552020202002
:100D6000202020207C202D2D2D7C207C2D2D202D21
:100D70002D2D2D7C207C2D2D207C2020202D7C20B5
:100D80007C5520202020202020207C5520207C20E5
:100D90007C20557C20202D2D207C207C2D7C207CCF
:100DA0002D2D2D7C2D2D202D7C2D20207C207C2078
:100DB0007C207C20202020207C202020207C2020C3
:100DC0002D7C2D7C207C207C2D2D2D2D2D2D7C20EF
:100DD0007C207C20206F7C207C207C207C2D2D2D75
:100DE0002D2D207C207C207C2D2D2D7C2020557CC1
:100DF00020202020202020202020202020202020F3
:100E00002055007C2D2D2D20202D2D2D2D2D2D2DEF
:100E1000552D2D2020207C557C4420207C20202016
:100E20002020202020202020207C2D7C207C2020A1
:100E3000207C207C2D2D2D2D207C207C20207C448E
:100E40007C207C2D7C2D7C207C20202D2D2D7C2039
:100E5000447C207C557C6C7E207C557C207C2D2025
:100E600020202020202020207C2D7C2D20207C2054
:100E70007C5520207C2D2D2D7C2D2D7C202020208C
:100E80002020207C207C2D2D2D2D2020202D2D2D4F
:100E90007C207C7C202020207C20202020202020E2
:100EA000552020202020202020202020442D2D2DC2
:100EB0002D2D2D2D2D2D2D2D2D2D2D2D2D20204465
:100EC000007C7C2020207C7C202D2D2D2D7C44201E
:100ED000202020447C447C7C2044207C7C207C7C22
:100EE000207C202D7C207C202020207C7C20202029
:100EF0007C7C207C2D202D7C207C207C2D2D2D2D7C
:100F00007C7A7C207C2020207C2020207C202020BB
:100F10007C7C447C207C207C447C2D7C207C20209C
:100F2000207C2D2D2D207C207C207C207C2D7C4441
:100F30007C207C2020207C202020207C2020207CE5
:100F400020202020207C207C2D202D7C207C3D7C9E
:100F50007C2D2D202D2D2D2D2D2D7C207C7C447C39
:100F60007C207C2D2D7C2020202020202020202053
:100F7000207C2D2D2D7C2020202020202D2D007E3A
:100F8000206F206C207A203D20202020202020204F
:100F9000202020232020202020202020202020204E
:100FA0002040202020202020202020202020202021
:100FB0002020205E20202020202076202020203C81
:100FC0002020203E202020202020202020202A20F9
:100FD0002020202020202020202020202020202011
:100FE0002020202020202020202020202020202001
:100FF00020202020202020202020202020202020F1
:1010000020202020202020202020202020202020E0
:1010100020202020202020202020202020202020D0
:1010200020202020202020202020202020202020C0
:101030002020202020202020202020003E003C00D6
:1010400076005E0043002000230000000000003E08
:101050005B4F5B3E3E6B4F6B3E1C3E7C3E1C183C28
:101060007E3C181C577D571C1C5E7F5E1C00183C84
:101070001800FFE7C3E7FF0018241800FFE7DBE7CD
:10108000FF30483A060E2629792926407F050507B4
:10109000407F05253F5A3CE73C5A7F3E1C1C080810
:1010A0001C1C3E7F14227F22145F5F005F5F0609D5
:1010B0007F017F006689956A606060606094A2FF2E
:1010C000A29408047E040810207E201008082A1C20
:1010D00008081C2A08081E101010100C1E0C1E0CEC
:1010E00030383E3830060E3E0E060000000000008C
:1010F000005F00000007000700147F147F14242AFB
:101100007F2A1223130864623649562050000807CC
:101110000300001C2241000041221C002A1C7F1CED
:101120002A08083E080800807030000808080808EF
:10113000000060600020100804023E5149453E0056
:10114000427F400072494949462141494D331814B4
:10115000127F1027454545393C4A49493141211103
:1011600009073649494936464949291E00001400F5
:101170000000403400000008142241141414141418
:10118000004122140802015909063E415D594E7C76
:101190001211127C7F494949363E414141227F412B
:1011A00041413E7F494949417F090909013E414189
:1011B00051737F0808087F00417F41002040413F74
:1011C000017F081422417F404040407F021C027F83
:1011D0007F0408107F3E4141413E7F090909063ED8
:1011E0004151215E7F0919294626494949320301A7
:1011F0007F01033F4040403F1F2040201F3F4038B9
:10120000403F631408146303047804036159494D93
:1012100043007F4141410204081020004141417FC9
:10122000040201020440404040400003070800203F
:10123000545478407F28444438384444442838443F
:1012400044287F385454541800087E090218A4A476
:101250009C787F0804047800447D40002040403D95
:10126000007F1028440000417F40007C047804780F
:101270007C080404783844444438FC1824241818A2
:10128000242418FC7C0804040848545454240404FE
:101290003F44243C4040207C1C2040201C3C4030EB
:1012A000403C44281028444C9090907C4464544C1A
:1012B0004400083641000000770000004136080075
:1012C00002010204023C2623263C1EA1A161123A1F
:1012D0004040207A3854545559215555794121546C
:1012E000547841215554784020545579400C1E5271
:1012F0007212395555555939545454593955545415
:10130000580000457C410002457D420001457C407B
:10131000F0292429F0F0282528F07C545545002098
:1013200054547C547C0A097F493249494932324835
:10133000484832324A4848303A4141217A3A42409C
:101340002078009DA0A07D39444444393D40404070
:101350003D3C24FF2424487E4943662B2FFC2F2B41
:10136000FF0929F620C0887E0903205454794100E2
:1013700000447D413048484A32384040227A007A61
:101380000A0A727D0D19317D2629292F282629293F
:10139000292630484D402038080808080808080861
:1013A000382F10C8ACBA2F102834FA00007B000088
:1013B00008142A142222142A14089500220095AA3F
:1013C000005500AAAA55AA55AA000000FF00101057
:1013D00010FF00141414FF001010FF00FF1010F095
:1013E00010F0141414FC001414F700FF0000FF00A8
:1013F000FF1414F404FC141417101F10101F101FF6
:101400001414141F00101010F0000000001F101022
:1014100010101F10101010F010000000FF1010101E
:10142000101010101010FF10000000FF140000FF3B
:1014300000FF00001F10170000FC04F41414171024
:10144000171414F404F40000FF00F7141414141417
:101450001414F700F7141414171410101F101F148D
:101460001414F4141010F010F000001F101F0000EE
:10147000001F14000000FC140000F010F01010FF1A
:1014800010FF141414FF141010101F00000000F0BF
:1014900010FFFFFFFFFFF0F0F0F0F0FFFFFF000094
:1014A000000000FFFF0F0F0F0F0F38444438447C3B
:1014B0002A2A3E147E02020606027E027E0263553E
:1014C0004941633844443C04407E201E2006027E8D
:1014D000020299A5E7A5991C2A492A1C4C7201729F
:1014E0004C304A4D4D303048784830BC625A463D09
:1014F0003E494949007E0101017E2A2A2A2A2A44BE
:10150000445F444440514A444040444A51400000F2
:10151000FF0103E080FF000008086B6B08361236FD
:101520002436060F090F06000018180000001010DE
:10153000003040FF0101001F01011E00191D17129C
:10154000003C3C3C3C00000000000102040810206C
:101550004080AB1B11241FBECFEFDAE0DEBFCDBF52
:1015600011E0A0E0B1E0E6EBF9E302C005900D92D6
:10157000AE35B107D9F726E0AEE5B1E001C01D9266
:10158000A23CB207E1F71AE0CAEADAE004C0219708
:10159000FE010E94BA1CC93AD107C9F70E9438154A
:1015A0000C94D91C0C940000FC0180916B018111FA
:1015B00003C08FEF9FEF08959FB7F89482E0809368
:1015C000E9002091F20030E01216130614F421E035
:1015D00030E02115310559F0289884E680936A019E
:1015E0008091F10080838091F200882319F09FBFE1
:1015F000C90108958BE68093E800F9CF2FB7F894DE
:1016000083E08093E9009091E800892F807295FF34
:1016100004C09091F20080E4891B2FBF089580914F
:10162000710181110DC082E080936D0184E080938F
:101630006E011092700110926F0181E08093710130
:101640008DE691E00895CF93DF931F92CDB7DEB77B
:101650006983DC01ED91FC910280F381E02D41E092
:1016600050E0BE016F5F7F4F09950F90DF91CF91E2
:10167000089583E08093E9008091F200882319F0B7
:101680008AE38093E80008950E94FE0A90E008959E
:10169000CF93DF931F92CDB7DEB7FC01848595858C
:1016A00097FD05C02FEF3FEF358724870BC0CE0194
:1016B00001960E94D40A019719F4898190E002C032
:1016C0008FEF9FEF0F90DF91CF9108950F931F93AE
:1016D000CF93DF931F92CDB7DEB78C01FC018485D9
:1016E000958597FF0EC0CE0101960E94D40A0197FE
:1016F00019F4298130E002C02FEF3FEFF801358760
:101700002487F801848595850F90DF91CF911F91F3
:101710000F910895FC018485958597FD0BC09FB7B7
:10172000F89482E08093E9008091F2009FBF90E0FE
:10173000019608959FB7F89482E08093E900809124
:10174000F2009FBF90E008958F929F92AF92BF9258
:10175000CF92DF92EF92FF920F931F93CF93DF937D
:101760005C016B017A0180910D01882309F45BC053
:1017700080916B01882309F456C08091690180FF34
:1017800005C08091E00082608093E000E70110E0F6
:101790000AEF83E0882E9AE3992E2097D9F10E94D0
:1017A000FE0A81110AC0015009F43DC061E070E0F9
:1017B00080E090E00E947612F0CF282F30E0C21730
:1017C000D3070CF48C2F4FB7F8948092E9009091D6
:1017D000E80095FF1DC0282F30E0C21BD30BF60197
:1017E000982F915020F081918093F100FACFC20E92
:1017F000D31E112319F09092E80009C08091E800EF
:1018000085FD06C09092E80011E0209709F010E0F5
:101810004FBFC3CF1111C3CF5D9884E680936C0195
:101820001E141F0444F081E090E0F501938382834D
:1018300080E090E001C0C701DF91CF911F910F912F
:10184000FF90EF90DF90CF90BF90AF909F908F90E0
:101850000895DF92EF92FF920F931F93CF93DF9340
:10186000D82E8A017B01E40EF51EEB01CE15DF05B3
:1018700071F0D7FE03C0FE01849101C088810E94EF
:10188000FD1421968111F2CF8FEF9FEF01C0C801A7
:10189000DF91CF911F910F91FF90EF90DF9008950E
:1018A0000F931F93CF93DF931F92CDB7DEB782E0E4
:1018B000898342E450E068EE76E080E80E94290CDB
:1018C0000E940F0BDC0112960D911C9113970115CC
:1018D000110569F0D801ED91FC910280F381E02DB2
:1018E000BE016F5F7F4FC801099597FF07C08981CF
:1018F0000F90DF91CF911F910F910895F80100850E
:101900001185E5CFCF93DF930E94FE11EC018BE5AB
:1019100091E00E946C118C0F9D1FDF91CF91089573
:10192000E0E9F5E09DEB9E0F2081281301C0608364
:1019300031969E13F9CF089580E0E9E7F1E0811137
:101940008FEF002481938193819381930394D1F746
:101950000895E9E7F1E0A0E0B8E000800EBC811155
:10196000012C1197A0FDFDCF0192B9F70DB4089598
:101970001F920F920FB60F9211248F939F93809115
:10198000E1009091E100937F9093E10083FF0FC00D
:101990001092E90091E09093EB001092EC0092E33A
:1019A0009093ED0010926B0198E09093F00082FF0D
:1019B00020C093E09093E9009091F200992319F0F0
:1019C0009AE39093E80090916C01992339F09091FB
:1019D0006C01915090936C01992389F190916A0167
:1019E000992339F090916A01915090936A0199235B
:1019F00041F184FF10C08091E2008E7E816080936F
:101A0000E2008091E1008F7E8093E1008091690186
:101A10008E7E806111C080FF16C08091E2008E7EB4
:101A200080618093E2008091E1008E7E8093E100EE
:101A3000809169018E7E81608093690104C05D9A06
:101A4000CDCF289AD6CF9F918F910F900FBE0F9038
:101A50001F9018951F920F920FB60F921124CF92DC
:101A6000DF92EF92FF920F931F932F933F934F9329
:101A70005F936F937F938F939F93AF93BF93EF93F6
:101A8000FF93CF93DF93CDB7DEB76C97DEBFCDBFAB
:101A90001092E9008091E80083FFEDC168E0CE017B
:101AA00045960E942B1582EF8093E8008D8987FF71
:101AB00005C09091E80090FFFCCF03C09EEF90938B
:101AC000E800982F907609F0C6C09E892F89188D5E
:101AD00091110CC0803829F4809168018093F10045
:101AE00002C01092F1001092F10048C1422F50E064
:101AF000512B913051F4811141C14130510509F010
:101B00003DC1809168018D7F0BC0933061F48111DC
:101B100035C14130510509F031C1809168018260C1
:101B2000809368012BC1953041F48091E80080FFDB
:101B3000FCCF20682093E30021C1963009F05FC0FC
:101B4000EB8CFC8C1092E9001092660110926501FA
:101B5000123091F510926401109263010E94500CB2
:101B600099E0BE016F5F7F4FDB01E92F1D92EA957F
:101B7000E9F799831A8391E09E8390EA98879AEF18
:101B800099872091650130916601275F3F4F3C8323
:101B90002B838D831092E9001092660110926501EB
:101BA000F0926401E092630149E050E080E00E941D
:101BB000290C0E94500CE2C0F0926401E092630193
:101BC0000E940F0BDC011296ED90FC901397E1142C
:101BD000F10409F4C0C0D701ED91FC910480F581B6
:101BE000E02DBE016B5E7F4FC7010995009719F08C
:101BF0000CF0C4C0C7C0F701E084F184E8CF97308F
:101C000009F4C0C0983021F481E08093F100B6C09F
:101C1000993009F0B3C0837009F0B4C0EFE0F1E08F
:101C200081E021E036E39081992361F08093E9001F
:101C30002093EB0091919093EC003093ED008F5F37
:101C4000873089F78EE78093EA001092EA008F8947
:101C500080936B0193C08B8D9C8D1092E900109244
:101C60006601109265019093640180936301898DF0
:101C7000811156C08E899D89913A59F4813209F0BB
:101C800081C047E050E066E071E080E00E94290CEE
:101C900075C0913209F076C0833289F4888D90E066
:101CA000982F88272F89822BA0E0B0E08093020133
:101CB00090930301A0930401B09305015FC08032AB
:101CC00069F48091E80082FFFCCF67E086E091E054
:101CD0000E942B158BEF8093E80006C0823209F03A
:101CE0004DC08F8980930D0180916701882319F081
:101CF000EEEFFAE002C0E0E0F8E08091060190919A
:101D00000701A0910801B0910901803B9440A10511
:101D1000B10509F07BC080910D0180FF93C076C0B2
:101D20000E940F0BDC0112960D911C911397011567
:101D3000110541F1D801ED91FC910190F081E02D68
:101D4000BE016B5E7F4FC8010995811117C0F80174
:101D500000851185ECCF113009F44EC0133091F499
:101D60008F89882309F445C0823081F440E867E018
:101D70008CE497E00E946E1B882321F08EEF809305
:101D8000E80079C081E28093EB0075C0813029F4CE
:101D900040E86BE080E497E0EDCF833099F70E9454
:101DA0000F0BDC011296ED90FC9013978E010F5FE4
:101DB0001F4F6801E114F10479F0D701ED91FC9116
:101DC0000680F781E02DB801C7010995080F111DA4
:101DD000F701E084F184EECFD8011C92F601019066
:101DE0000020E9F73197BF016C197D0940E0C60179
:101DF000C1CF6AE277E002C06EE277E0611571055B
:101E000009F2FB01449150E080E840CF0FB6F8940E
:101E1000A8958091600088618093600010926000B6
:101E20000FBEA895EE3F2AE0F20739F08091FE0A36
:101E30009091FF0A91838083A1CF1092FF0A1092A4
:101E4000FE0A9CCFEE3F8AE0F80731F08081918155
:101E50009093FF0A8093FE0A87E797E79183808338
:101E60009BE088E10FB6F894A895809360000FBEC0
:101E70009093600083CF6C960FB6F894DEBF0FBED0
:101E8000CDBFDF91CF91FF91EF91BF91AF919F9126
:101E90008F917F916F915F914F913F912F911F9102
:101EA0000F91FF90EF90DF90CF900F900FBE0F90AB
:101EB0001F90189520916006282329F490915F06C1
:101EC000982381E009F480E008952F923F924F9289
:101ED0005F926F927F928F929F92AF92BF92CF92BA
:101EE000DF92EF92FF920F931F93CF93DF93CDB7C3
:101EF000DEB728970FB6F894DEBF0FBECDBF5A01EC
:101F0000822E912C9C01280D391D37FDC4C08038CC
:101F100091050CF0C0C09B01200F311D37FDBBC0E7
:101F2000603471050CF0B7C0AB0177FF04C04427E3
:101F30005527461B570B477055279B0177FF02C05B
:101F4000295F3F4FE3E035952795EA95E1F777FF65
:101F500008C02150310968E070E0DB01A41BB50B1B
:101F6000AD01602F66956695669570E0077011F07B
:101F70006F5F7F4FDB01A20FB31FBA83A9833901C3
:101F80007694762C662477946794680E791EE12CFB
:101F9000F12C00E010E02301B0E84B0E511C68E08A
:101FA00070E0DB01A41BB50BBC83AB8369817A8134
:101FB0002617370709F46FC02830310509F46BC0C4
:101FC0002F3FBFEF3B070CF45BC0B201600F711FE6
:101FD000DB01A758BE4FBE83AD83D801A60DB71D48
:101FE000A758BE4F6C0160E070E0681579050CF0F1
:101FF00047C0E0E8CE16D10409F442C0D7FC34C093
:102000002F3FFFEF3F0709F442C0FB01EE0DFF1D1C
:10201000EA0DFB1DE491042E01C0EE0F0A94EAF7CD
:102020003C90E329EC9341155105F1F0273031053F
:10203000D9F0FB01EE0DFF1DEA0DFB1DE4912E2EE4
:10204000312CF1010B8002C0F595E7950A94E2F777
:10205000F887EF83ED81FE813080EF81F885E329F9
:102060001F01ED81FE8120826F5F7F4FED81FE8138
:102070003196FE83ED83FFEFCF1ADF0A1196B5CFBD
:102080002F5F3F4F00581F4FE80CF91C8FCF4115B1
:10209000510579F6E9CF28960FB6F894DEBF0FBE4A
:1020A000CDBFDF91CF911F910F91FF90EF90DF9007
:1020B000CF90BF90AF909F908F907F906F905F90E8
:1020C0004F903F902F900895EF92FF920F931F93A0
:1020D000CF93DF937C018B01095F1F4FEB0177FFEB
:1020E00010C0C0E0D0E00DC0C217D3078CF480E868
:1020F000E816F10428F440E0BE01C7010E9409136C
:1021000021969801013411057CF320E430E0ECCFF6
:10211000DF91CF911F910F91FF90EF9008959C0157
:102120002B5F3F4F2538310570F5FC0197FF02C04A
:10213000E0E0F0E006968138910514F080E890E048
:102140008E1BAB014770552721E030E001C0220F04
:102150004A95EAF7209577FF02C0695F7F4F93E0C9
:10216000759567959A95E1F77695762F6627779519
:102170006795E60FF71FE758FE4F815020F09081DA
:1021800092239193FACF089580E80E945A0F8823F2
:1021900009F1E0918305E551F0E0E758FA4F8789AE
:1021A0000E940E1481110DC0E2E4F0E1E491A091CF
:1021B0008305A551B0E0A758BA4F57968C918E135E
:1021C00072C02091850530E081E0273031050CF0A8
:1021D0006BC069C080E10E945A0F882309F1E09129
:1021E0008305EB5EF0E0E758FA4F87890E940E14F2
:1021F00081110DC0E0E4F0E1E491A0918305AB5EB4
:10220000B0E0A758BA4F57968C918E134CC02091CE
:10221000850530E081E0233331050CF445C043C02F
:1022200080E20E945A0F8823E1F0E0918305F0E0FC
:10223000E758FA4F86890E940E1481110CC0EEE314
:10224000F0E1E491A0918305B0E0A758BA4F56960B
:102250008C918E1328C081E090918405911124C047
:1022600022C080E40E945A0F8823E9F0E0918305A0
:10227000F0E0E758FA4F808D0E940E1481110CC0D7
:10228000ECE3F0E1E491A0918305B0E0A758BA4FE8
:1022900058968C918E1307C02091840530E081E020
:1022A000283731050CF080E0089588E00E945A0F2D
:1022B000882331F084E090E090934F0680934E069F
:1022C00084E00E945A0F882331F083E090E09093DD
:1022D0004F0680934E060895009769F0FC01019027
:1022E0000020E9F73197AF01481B590BBC0186E587
:1022F00096E00C941F1280E090E008958F929F92D8
:10230000AF92BF920F931F93CF93DF93CDB7DEB7FA
:10231000A1970FB6F894DEBF0FBECDBF19A2423011
:1023200008F44AE08E010F5D1F4F842E912CA12CE2
:10233000B12CA50194010E94781CE62FB901CA01B5
:1023400001501109EA3014F4E05D01C0E95CD801E4
:10235000EC93232B242B252B61F7C8010E946C11D1
:10236000A1960FB6F894DEBF0FBECDBFDF91CF911F
:102370001F910F91BF90AF909F908F900895CF9233
:10238000DF92EF92FF92CF93DF936B017C01E0919C
:102390005606F09157060190F081E02D6DE286E53A
:1023A00096E00995EC0166277727CB016C197D092A
:1023B0008E099F094AE00E947E118C0F9D1FDF91BC
:1023C000CF91FF90EF90DF90CF900895CF93DF9360
:1023D000BC01990F880B990B97FF03C00E94BF1196
:1023E00003C04AE00E947E11EC018BE591E00E945F
:1023F0006C118C0F9D1FDF91CF9108950F931F9348
:10240000CF93DF938C01C0E0D0E0F801EC0FFD1F0B
:102410006491662371F0E0915606F09157060190A1
:10242000F081E02D86E596E00995892B11F0219643
:10243000ECCFCE01DF91CF911F910F910895CF92F4
:10244000DF92EF92FF920F931F93CF93DF936C0174
:102450007A018B01C0E0D0E0CE15DF0589F0D8010C
:102460006D918D01D601ED91FC910190F081E02DEF
:10247000C6010995892B11F47E0102C02196ECCF8B
:10248000C701DF91CF911F910F91FF90EF90DF90E7
:10249000CF9008953FB7F8948091BE069091BF0603
:1024A000A091C006B091C10626B5A89B05C02F3FDC
:1024B00019F00196A11DB11D3FBFBA2FA92F982F6A
:1024C0008827820F911DA11DB11DBC01CD0142E0E5
:1024D000660F771F881F991F4A95D1F708950895B1
:1024E000089580E090E008950E94D41C8F929F92FE
:1024F000AF92BF92CF92DF92EF92FF926B017C017D
:102500000E944A124B015C01C114D104E104F104A0
:10251000F1F00E944A12DC01CB0188199909AA093D
:10252000BB09883E9340A105B10570F321E0C21AB2
:10253000D108E108F10888EE880E83E0981EA11CFE
:10254000B11CC114D104E104F10419F7DDCFFF90EF
:10255000EF90DF90CF90BF90AF909F908F900895B5
:102560001F920F920FB60F9211242F933F938F93C8
:102570009F93AF93BF9380915E0190915F01A09173
:102580006001B09161013091BD0623E0230F2D372A
:1025900020F40196A11DB11D05C026E8230F029667
:1025A000A11DB11D2093BD0680935E0190935F0134
:1025B000A0936001B09361018091BE069091BF0627
:1025C000A091C006B091C1060196A11DB11D8093D6
:1025D000BE069093BF06A093C006B093C106BF91FC
:1025E000AF919F918F913F912F910F900FBE0F90C0
:1025F0001F9018952D9A0895BC0180E090E00C94EE
:1026000076128FB18095807F669B88601C9B84606A
:102610000895EAE4F5E190E1969FD001A0781124B5
:10262000A80F6770E60FF11D9491A758BE4F442381
:1026300019F08C91982B03C090958C9198239C93C2
:1026400008952F923F924F925F926F927F928F9256
:102650009F92AF92BF92CF92DF92EF92FF920F9331
:102660001F93CF93DF93CDB7DEB727970FB6F894BC
:10267000DEBF0FBECDBFFC016A3069F425898189B8
:10268000928938E0239F800D911D1124928B818BBC
:10269000108A1786A6C06D3009F4A3C09F838E836D
:1026A00035882489298333893A8361887288E7844D
:1026B000F08880E8E816F104C4F0AE81BF81559639
:1026C0002C915597422F50E01F968D919C915097D9
:1026D000B6E02B9F800D911D1124EE81FF81908B20
:1026E00087872689211167C07CC0F0E46F167104CA
:1026F00024F7C70125E0329E800D911D1124181684
:102700001906DCF6432C512CC30138E0339E800DB2
:10271000911D11241816190684F685E0689F800122
:102720001124065B1F4E20E0F8012490253009F4A7
:10273000212C430158E020FC02C0398101C03A81BC
:1027400031110BC0F9818A81F81307C026945150CA
:10275000840C951C5111EFCF25C067018C2D8E196B
:102760008315A0F754018A2D88198315B8F490E8D1
:10277000C916D10478F4A0E4AA16B10458F4432F82
:10278000B501C6012C833B835D830E9409135D81E3
:102790003B812C81BFEFAB1ABB0AE5CFEFEFCE1A1E
:1027A000DE0ADCCF2F5FE40CF51C0F5F1F4F2630D5
:1027B00009F0BACF82CF6AEF64039001659F300DB4
:1027C000112420583F4F281739075CF4AE81BF8190
:1027D000ED91FC9111970190F081E02D6AE0CD011F
:1027E000099581E090E027960FB6F894DEBF0FBE02
:1027F000CDBFDF91CF911F910F91FF90EF90DF90B0
:10280000CF90BF90AF909F908F907F906F905F9090
:102810004F903F902F9008950C94621C282F880FA2
:10282000330BE8E4F0E1E491F0E02E173F0709F400
:1028300045C0E5E7F2E0E491F0E02E173F0709F428
:102840003DC0E9E6F2E0E491F0E02E173F0709F41D
:1028500035C0EBE6F2E0E491F0E02E173F0709F413
:102860002DC0E7E6F2E0E491F0E02E173F0731F1EA
:10287000E5E6F2E0E491F0E02E173F07F9F0E3E639
:10288000F2E0E491F0E02E173F07C1F0E6E4F0E15A
:10289000E491F0E02E173F0789F0EFE6F2E0E491D3
:1028A000F0E02E173F0751F0EDE6F2E0E491F0E0A2
:1028B00081E02E173F0719F080E0089581E0089528
:1028C000FF920F931F93CF93DF93AC0145525F4F5D
:1028D000FA01108231961082FC0121893089E30FC0
:1028E000F11DE30FF11D60813181C62FD32FC20F7F
:1028F000D11DC20FD11DDC01579680E090E005E7A5
:1029000012E0FF24F394E881F981E80FF91FE491C4
:10291000ED9328813981F901E80FF91F2491F8011D
:102920006491022E000C330B70E02617370751F02C
:1029300001968D3B910539F7DF91CF911F910F9152
:10294000FF900895FA01F082F3CF282F30E065E17F
:102950000E949A1CA901491B5109CA0165E170E056
:102960000E94A61C87E0869F802D11240895853142
:1029700070F08A3218F490E0459709C08F3318F44C
:1029800090E08A9704C0843530F490E0CF97982F78
:10299000990F890F2FC0893630F492E0899F800DFE
:1029A00011248C5F27C08E3730F492E0899F800D10
:1029B00011248B531FC0833930F492E0899F800D1E
:1029C00011248A5717C0883A30F492E0899F800D0D
:1029D0001124895B0FC08D3B30F492E0899F800DFC
:1029E0001124885F07C0823D38F492E0899F800DF2
:1029F00011248753880F08950895409165015091DF
:102A00006601209163013091640142175307B4F4C9
:102A10009091E8009570E1F39091E80092FD19C063
:102A20008093F100809165019091660101968F730A
:102A30009927892B19F48EEF8093E8008091650126
:102A4000909166010196909366018093650181E003
:102A5000089580E00895615030F02091F100FC016C
:102A600020830196F8CF289884E680936A01089520
:102A7000789484B5826084BD84B5816084BD85B559
:102A8000826085BD85B5816085BD80916E00816065
:102A900080936E001092810080918100826080930B
:102AA000810080918100816080938100809180000D
:102AB000816080938000809191008260809391007A
:102AC000809191008160809391008091900081605D
:102AD000809390008091C10084608093C1008091B8
:102AE000C10082608093C1008091C10081608093A9
:102AF000C1008091C30081608093C3008091C000B9
:102B000082608093C0008091C20081608093C20087
:102B100080917A00846080937A0080917A0082604C
:102B200080937A0080917A00816080937A0080910E
:102B30007A00806880937A0010926B01109268018D
:102B4000109269018091D70081608093D70080EA5C
:102B50008093D80089B5806189BD89B5826089BDBF
:102B600009B400FEFDCF61E070E080E090E00E94DB
:102B700076128091D8008F7C80618093D8008091FC
:102B8000E000807F8093E0008091E1008E7E809362
:102B9000E1008DE08093E200559A209AEEEFFFE786
:102BA000859194918B3F9C4D19F481E0809367014E
:102BB00081EC80937C0085B1806F85B984B1877E7C
:102BC00084B984B1876E84B95E9A5F988AB1806D4A
:102BD0008AB9769A6E9881B3806F81BB899880B3E9
:102BE0008D7080BB80E58CBD81E08DBD85E090E07F
:102BF0000E94FC125F9A85E090E00E94FC125E98B1
:102C00005C98ECE6F1E08DE08E0F94919EBD0000A3
:102C10000DB407FEFDCF31968E13F7CF5C9A81E895
:102C2000809364008091650081608093650080E0FE
:102C30000E94A90C0E94011387FF24C05C9885EABA
:102C40008EBD00000DB407FEFDCF5C9A2E982F9824
:102C50002D988091640080628093640081E083BF3E
:102C6000889513BEFCCF2D980E9401138478843878
:102C700071F00E9401138471843131F188EC90E08D
:102C80000E94FC120E94011382FDEDCF3AC00E9407
:102C9000FA1288EC90E00E94FC122F9882E090E0FB
:102CA0000E94621C8F3F29F06FEF82E090E00E944B
:102CB0006A1C84EF91E00E94FC122F9A0E9401137B
:102CC00084788438D9F3D5CF0E94FA1288EC90E04A
:102CD0000E94FC122E9882E090E00E94621C8823E1
:102CE00029F060E082E090E00E946A1C84EF91E0AD
:102CF0000E94FC122E9A0E94011384718431D9F330
:102D0000BDCF0E94FA1282E090E00E94621C8823EC
:102D100031F03E9A3F9A81E08093620104C01092A4
:102D200062013E983F9881E090E00E940C1482FB83
:102D3000112710F981FF3EC011112E98C0EFDFEF6F
:102D40000E94011386FF04C02E9A2F9A2D9A32C03A
:102D5000112329F0C430D10511F42E9A2F9881E067
:102D60000E94A90C00E128E54CEB50E0BE0184E193
:102D700090E00E94650F80E00E94A90C8FE090E037
:102D80000E94FC122196C931D105D1F6112311F010
:102D90002F9A2D9880E991E00E94FC120E94FA126D
:102DA000E0915A06F0915B060190F081E02D8AE5F2
:102DB00096E0099582E390E00E94FC120E940113C4
:102DC0008111F8CF81E2809361060E949C0C1092E1
:102DD000680610926706109266061092650664E116
:102DE000E62EF12C8FB7F89440915E0150915F016F
:102DF00060916001709161018FBF80916206942F94
:102E0000981B892F90916306992329F0809364067B
:102E10001092630697C190916106891748F48F5FFD
:102E2000891708F08FC181E083BF889513BE8AC1DE
:102E300081E0809363064093620680915D069091E5
:102E40005E06019690935E0680935D0680915F0614
:102E5000809360060E94011380935F060E949C0C81
:102E60001092680610926706109266061092650628
:102E7000C0914E06D0914F06C830D10508F05FC111
:102E8000FE01EA5AFF4F0C94BA1C00E420E846EE1B
:102E900052E060E070E080E090E00E94650F88E022
:102EA0000E945A0F882309F44AC182E090E022C1AF
:102EB00084E00E945A0F882309F441C110924F0602
:102EC00010924E063CC18FED92E00E94FE1160917F
:102ED000000170910101FB01E05BF94F80818823C3
:102EE00021F0CB010E94E61110C0072E000C880BC8
:102EF000990B97FF03C00E94BF1103C04AE00E94D4
:102F00007E1187ED92E00E94820C80E80E945A0FA9
:102F1000882349F0809100019091010101979093DD
:102F200001018093000180E10E945A0F882349F03B
:102F3000809100019091010101969093010180938D
:102F4000000180910001909101011816190634F0DA
:102F500084E090E090930101809300018091000152
:102F600090910101059734F081E090E09093010188
:102F70008093000188E00E945A0F882309F4DFC083
:102F80008091000181508093890589E795E00E9436
:102F90006014AEC080E9C82E85E0D82E10E093EA18
:102FA000292E92E0392E2BE9422E22E0522E33E9CF
:102FB000A32E32E0B32E4BE8842E42E0942E53E849
:102FC000652E52E0752EF60181916F01082E000CDE
:102FD000990BE5EDF2E0249130E08217930709F4B4
:102FE000B9C0E3EDF2E0249130E08217930709F0D5
:102FF00053C2B0C00E94551180918B05882351F0B7
:1030000000E120E141E452E06DE270E080E590E013
:103010000E94650F80918C05882351F000E120E12A
:1030200041E252E069E170E080E590E00E94650FC6
:1030300080918D05882351F000E120E141E052E0CC
:1030400065E070E080E590E00E94650F80918E055C
:10305000882351F000E120E141EE51E063E270E0AD
:1030600084E690E00E94650F80918F05882351F0DF
:1030700000E120E141EC51E063E270E08CE390E09C
:103080000E94650F89EB91E00E94FE1180918905F5
:1030900090E001960E94E61181EB91E00E94FE1102
:1030A00060918A0570E080E090E04AE00E947E1125
:1030B0008BE591E00E946C118091540690E00E9493
:1030C000E6118091550690E038C080EA91E00E94B8
:1030D000FE118091890590E001960E94E61181E938
:1030E00091E00E94820C88E00E945A0F882339F1F7
:1030F00083E090E090934F0680934E0620C0F092BC
:103100006606E0926506F0926806E092670681E83E
:1031100091E00E94820CF0926606E09265068EE1D4
:1031200090E0909368068093670689E791E00E949B
:10313000FE1180918605909187050E94E61180E03E
:103140000E94A90C80E090E0892B09F44BCE0E94EC
:10315000000048CE812F0E94A514082F812F0E94C5
:10316000B714602F70E007E026E04DEC52E090E0ED
:103170000E94650F1F5F1D3B09F025CF109183054D
:10318000812F0E94A514B82EC82ED12C812F0E9409
:10319000B714082F10E0FFE3FB1520F0B601C801BB
:1031A0000E948F10B6016A5F7F4F603471051CF476
:1031B000C8010E948F10B601C8010E946410B601B8
:1031C000C80105960E94641010918305812F0E940A
:1031D000A514082F812F0E94B714602F70E007E01C
:1031E00026E047E752E090E00E94650F0E94C4107D
:1031F000882309F463C081E08093880580E80E94F9
:103200005A0F882399F08091850586508093850513
:1032100080918305855180938305809186059091E7
:1032200087050196909387058093860580E10E942B
:103230005A0F882399F0809185058A5F80938505D0
:10324000809183058B5E80938305809186059091A4
:1032500087050196909387058093860580E20E94FA
:103260005A0F882399F080918405865080938405B5
:10327000809183058150809383058091860590918C
:1032800087050196909387058093860580E40E94C8
:103290005A0F882399F0809184058A5F8093840572
:1032A000809183058F5F809383058091860590913F
:1032B0008705019690938705809386050E94C41028
:1032C000882329F1E5E7F2E0E491A0918305B0E0DD
:1032D000A758BA4F57968C91082E000C990BF0E026
:1032E0008E179F07A1F480915506882309F4B7C172
:1032F0001092550680915506882309F4B4C1E1E780
:10330000F2E06491E3E7F2E084910E94900CEFE632
:10331000F2E0E491A0918305B0E0A758BA4F579628
:103320008C91082E000C990BF0E08E179F0779F412
:1033300080918805882359F01092880580918A052C
:10334000815080938A0589E795E00E946014EDE63C
:10335000F2E0E491A0918305B0E0A758BA4F5796E8
:103360008C91082E000C990BF0E08E179F0779F4D2
:1033700080918805882359F01092880580918A05EC
:103380008F5F80938A0589E795E00E946014E09141
:103390008305F0E0E758FA4F8789082E000C990B57
:1033A000EBE6F2E0E491F0E08E179F0709F461C1CB
:1033B000E9E6F2E0E491F0E08E179F0709F45CC1C2
:1033C000E7E6F2E0E491F0E08E179F0709F457C1B9
:1033D000E5E6F2E0E491F0E08E179F0709F454C1AE
:1033E000E3E6F2E0E491F0E08E179F0709F44AC1AA
:1033F00080918B05882381F080918C05882361F072
:1034000080918D05882341F080918E05882321F0DD
:1034100080918F0581113DC10E94551180918B05CE
:10342000882341F0E1E6F2E06491E3EAF2E084917E
:103430000E94900C80918C05882341F0E1E6F2E037
:103440006491EBE9F2E084910E94900C80918D05EB
:10345000882341F0E1E6F2E06491E3E9F2E084914F
:103460000E94900C80918E05882341F0E1E6F2E005
:103470006491EBE8F2E084910E94900C80918F05BA
:10348000882309F45CCEE1E6F2E06491E3E8F2E03F
:1034900084910E94900C53CEEBECF2E0249130E04A
:1034A0008217930771F4812F0E94A514082F812F92
:1034B0000E94B714602F70E007E026E045EC52E070
:1034C00056CEE3ECF2E0249130E08217930771F4DA
:1034D000812F0E94A514082F812F0E94B714602FFE
:1034E00070E007E026E04DEB52E041CEEEE3F0E184
:1034F000249130E08217930771F4812F0E94A51464
:10350000082F812F0E94B714602F70E007E026E09B
:1035100047EB52E02CCEECE3F0E1249130E082174F
:10352000930771F4812F0E94A514082F812F0E9408
:10353000B714602F70E007E026E041EB52E017CEB1
:10354000E2E4F0E1249130E08217930771F4812FD7
:103550000E94A514082F812F0E94B714602F70E0DD
:1035600007E026E04BEA52E002CEE0E4F0E12491ED
:1035700030E08217930771F4812F0E94A514082F61
:10358000812F0E94B714602F70E007E026E045EA23
:1035900052E0EDCDF101249130E08217930771F4F0
:1035A000812F0E94A514082F812F0E94B714602F2D
:1035B00070E007E026E04DE952E0D9CDF201249118
:1035C00030E08217930771F4812F0E94A514082F11
:1035D000812F0E94B714602F70E007E026E045E9D4
:1035E00052E0C5CDF501249130E08217930771F4C4
:1035F000812F0E94A514082F812F0E94B714602FDD
:1036000070E007E026E04DE852E0B1CDF4012491EE
:1036100030E08217930771F4812F0E94A514082FC0
:10362000812F0E94B714602F70E007E026E045E884
:1036300052E09DCDF301249130E08217930709F009
:1036400099CD812F0E94A514082F812F0E94B714B5
:10365000602F70E007E026E04DE752E088CD81E082
:103660008093550647CEE3E7F2E06491E1E7F2E0AC
:103670004BCEC1E0D0E008C0C2E0D0E005C0C0E061
:10368000D0E002C0C4E0D0E0C758DA4F81E08A8BB6
:10369000AFCE89E4809383058CE38093840585E134
:1036A0008093850510928B0510928C0510928D05E4
:1036B00010928E0510928F0510928A0580918905CF
:1036C0008F5F8093890589E795E00E94601487E009
:1036D00090E090934F0680934E069ECECF92DF925D
:1036E000EF92FF920F931F93CF93DF931F92CDB76B
:1036F000DEB7182F062FE42E862F880F8E5F998352
:103700000E94FD1483E00E94FD14F12EC12E9981C8
:10371000D92E8C2D8F19801798F4F601E7FE02C080
:10372000849101C080810E94FD14182F80E00E94C6
:10373000FD148123FFEFCF1ADF0A8111EACF01C008
:1037400081E00F90DF91CF911F910F91FF90EF904B
:10375000DF90CF900895CF93EDE6F6E013821282CA
:1037600088EE93E0A0E0B0E084839583A683B783DE
:1037700089E391E0918380838FEF9FEF9587848722
:1037800088E0E5E1F1E0A9E7B5E001900D928A95C6
:10379000E1F7E9E7F5E089E482878CE3838785E157
:1037A000848716861586178684E490E19187808742
:1037B000108A118A85E0EBE8F5E0DF011D928A9519
:1037C000E9F78EEBE0E9F5E0DF011D928A95E9F774
:1037D00010924F0610924E06E0E5F6E0108211823C
:1037E00012821382C1E0C083C0935106C093520677
:1037F000109254061092550689E795E00E946014D5
:10380000E6E5F6E0138212821186128680E1838754
:103810001086178215868BE491E09183808389E579
:1038200091E095838483108A1786128A118AC38B4C
:10383000148AC58B168ACF9108950F931F93CF9347
:10384000DF938C0181E090E00E940C1480FF32C075
:103850008AE090E00E940C149FEF980F9E3F50F575
:1038600022E330E0D80150963C932E931F9728E333
:1038700030E052963C932E935197CBE0D0E0D801A4
:10388000ED91FC910190F081E02D682FC801099520
:10389000CE010E940C142196C131D10581F780E040
:1038A0000E94A90C88EE93E0DF91CF911F910F91B8
:1038B0000C94FC12DF91CF911F910F910895049702
:1038C0000C941D1CF999FECF92BD81BDF89A9927E1
:1038D00080B50895262FF999FECF1FBA92BD81BDFC
:1038E00020BD0FB6F894FA9AF99A0FBE0196089582
:1038F000A1E21A2EAA1BBB1BFD010DC0AA1FBB1FF4
:10390000EE1FFF1FA217B307E407F50720F0A21B65
:10391000B30BE40BF50B661F771F881F991F1A94D2
:1039200069F760957095809590959B01AC01BD01FC
:10393000CF010895991B79E004C0991F961708F0EC
:10394000961B881F7A95C9F78095089597FB072ED7
:1039500016F4009407D077FD09D00E94C01C07FC24
:1039600005D03EF4909581959F4F0895709561958F
:103970007F4F0895EE0FFF1F0590F491E02D0994FD
:10398000AA1BBB1B51E107C0AA1FBB1FA617B70785
:1039900010F0A61BB70B881F991F5A95A9F78095A1
:1039A0009095BC01CD01089581E090E0F8940C94CD
:0639B000D91CF894FFCFC2
:1039B6000100FFFFFFFF00E100000000000000C162
:1039C600808100000033012D0123011D01D0081262
:1039D600085407860CC80B0A0B4C0A8E09C10E0345
:1039E6000E450D7F0F00000000230BA40B440B397E
:1039F6000B8A0B480B660B0000000021131F127187
:0E3A06001270121D1CFCFF00005F1C0D0A0058
:00000001FF
