:100000000C949B0C0C94C30C0C94C30C0C94C30C5C
:100010000C94C30C0C94C30C0C94C30C0C94C30C24
:100020000C94C30C0C94C30C0C94250E0C94970EDA
:100030000C94C30C0C94C30C0C94C30C0C94C30C04
:100040000C94C30C0C94C30C0C94C30C0C94C30CF4
:100050000C94C30C0C94C30C0C94C30C0C94691436
:100060000C94C30C0C94C30C0C94C30C0C94C30CD4
:100070000C94C30C0C94C30C0C94C30C0C94C30CC4
:100080000C94C30C0C94C30C0C94C30C0C94C30CB4
:100090000C94C30C0C94C30C0C94C30C0C94C30CA4
:1000A0000C94C30C0C94C30C0C94C30CF7180A19D1
:1000B0001519BA19DF19A51A851A6B1AF0F89C8E52
:1000C0008783878E9CF8F00000FEFF030303030381
:1000D000070EFCF80000FEFF0303030303070EFCFA
:1000E000F80000FFFF00000000000000FFFF00001C
:1000F000FEFF8383838383C7EE7C380000F8FC0E09
:1001000007030303070EFCF800003F7FE0C0808078
:10011000C0E07F3FFFFF01010101010101FFFF007E
:1001200000FFFF0C0C0C0C1C3E77E3C100007FFFAE
:10013000C0C0C0C0C0E0703F1F00001F3F70E0C0E3
:10014000C0C0E0703F1F00007FFFC1C1C1C1C1E35B
:10015000773E1C00001F3F70E0C0C0C0E0703F1F32
:10016000000000000001FFFF01000000D5F08D1429
:10017000A1C881CFD9F1AF200053746570733A20C4
:1001800000594F552057494E20464F52204E4F5749
:10019000004120746F20636F6E74696E75652E0068
:1001A000456E746572696E67204C6576656C3A20A1
:1001B000004F7574206F663A2000466C6F6F723A7C
:1001C00020004C6576656C3A20000000000050E08D
:1001D00020909020E070180C0400002030180D0BC7
:1001E000040908040B0500000000000000000000E6
:1001F000000000B0A828A8B00000000016150515E2
:100200001600000000000000000000007088B878B0
:1002100078787878707060C00000000000000001FD
:1002200019051D1901010100000000000000000077
:10023000FC02FEFC00000000000000000000004086
:100240003F403F7F00000000000000C03008C42491
:100250005292925224C40830C00000030C10232490
:100260004A49494A2423100C030020007A003D002B
:100270006F007E006C0044005500043024302810CC
:1002800055005500550023007F087F087F082A008D
:1002900000021E1010007A000010100404003D003F
:1002A000001C1C1808007E000010300C02006C00BE
:1002B000001C222A1C006F00081024100800760081
:1002C0000008041204085E000008221408003E0022
:1002D0000008142208003C00003E14143E005500A3
:1002E000003E3A223E0044000033301703317C00C8
:1002F0002D004C6F636B656400556E6C6F636B65AE
:1003000064004C656173742053746570733A200007
:100310004C6576656C200080400000003078CC7819
:100320003040E0B0E040000080808080C0C0C080ED
:1003300080800103000B051C0428352C42447A9868
:1003400018A0042CBC0BA3C7B2343D10A28B777746
:1003500060E0B7B71B30D82AC6C240991B7B2193F7
:1003600041ED22C6C040111B59291141452A448242
:100370004099113B018241A800C64000110A112892
:100380001100012A44820088002A008200A800028D
:1003900000000002000800000000000000007EE0F5
:1003A000C0C0F80D0060FC8E738D257596AA4A1AA0
:1003B000F60D9B66F800000000000000000001033D
:1003C00001050700050A19055B2EE62041AF6716F7
:1003D00060D1C641860461A8190A01646EEE264DFB
:1003E00005B420190801446ECCA645051428118ACD
:1003F0004124A452A8C8E9C8F4E4F4F4E8E8E8D237
:10040000A5A04048800A002044AA000800A00000DF
:100410000000002200800000000000000000EF5FEC
:100420001FBF3F3E78787B776C696A6A6AFA727B95
:1004300075FA7DBA3938D8280000000000000000A5
:1004400000000000000000000000000001010102A7
:10045000020B100A2D380110170B2532182910260F
:1004600015131017092510180918049540A057985E
:10047000D6EFC6EFC7E3D1E3D1E0D1A081030707F0
:100480000F1F3FFFFEFDFAF4E8D020C20002000279
:100490000020000000080000000000000000039F92
:1004A000C080077E078100E0039F00833E03C0CF2A
:1004B000C180071F000001000CFCFC3CFCF080C068
:1004C000F0781CFCFCFC0C00000080E07C3CFCF89C
:1004D000C0000000003C1C8CCCFC7C3C0C000CFCE4
:1004E000FCFCCCCCEC0C1C000000C72855AA47EF44
:1004F000E777BBDDCD158585858589810000000006
:1005000000000000FFFFFFFFFFFFFFFEFD020C10D9
:1005100020408000000000000000000000FCFE57AA
:10052000BBBF8F878301007F807F00013A2AAAAA80
:100530002A2956EC00000000989F9F98818F9F8F7A
:100540000300189F9F9F9800989C9F9B03839B9FED
:100550009F1E1880989E9F1F9998989C1F00989F97
:100560009F9F189899989C9F80808001028485881D
:1005700092979389840300000000000001E11EA00F
:1005800070F87EFF7F7F3F9F43A7CFA7D1EAF5FAA0
:10059000FE5C08916A04000000000000001F3FF1AB
:1005A000EECAAA6AEA6AE46060606070381C8FC7AD
:1005B000E0F03F1F0000000000FFFF103070F8CF98
:1005C0008F000000FFFF000000FFFF000000FFFFA2
:1005D000030F3CF0FFFF000000FFFF030F3CF0FFA4
:1005E000FF000000FFFF08081C81E3620000FFFF1E
:1005F000103070F8CF8F00000000000000010204EE
:10060000090A090808040910252B272F272F170B83
:10061000131110211E00000000C040C04040808027
:10062000810143C7C747C647468686860747C3C179
:1006300041C040408080800041C1C141C0404081F4
:1006400081810040C0C141C141418080800141C1E0
:10065000C140C040418180800141C1C140C0404192
:100660008180800141C1C141C141418080810141FE
:10067000C1C040C041418180800040C0C040C040F6
:10068000408080800040C0C040C0404080808000EA
:1006900040C0C040C0404080809E8A64503B0A7188
:1006A000B05026869E8A64503B0A71B05026869EC2
:1006B0008A64503B0A71B05026869E8A64503B0A79
:1006C00071B05026869E8A64503B0A71B0502686CF
:1006D0009E8A64503B0A71B05026869E8A64503BC5
:1006E0000A71B05026869E8A64503B0A71B050262B
:1006F000869E8A64503B0A71B05026869E8A64505A
:100700003B0A71B05026869E8A64503B0A71B050F5
:1007100026869E8A64503B0A71080B000202020181
:100720000009040000010202000005240010010578
:1007300024010101042402060524060001070581A5
:100740000310004009040100020A0000000705022E
:100750000240000007058302400000040309041260
:10076000010002EF02014041233680000101020333
:100770000141726475696E6F204C4C430041726494
:1007800075626F79007C203C3C3C3C207C2D2D2DFB
:100790002D2D2D2D2D2D2D2D2D7C7C207C6C3C3C4C
:1007A00020203E3E3E3E3E3E3E3E3E20207C7C2083
:1007B000207C203E3E552020203C207C762D2D7C28
:1007C0007C207C7C207C3E762D2D2D2D7C20767609
:1007D0007C202D2D7C7C557C7C207C3E762D2D2D07
:1007E0002D7C2020203C2020207C2D2D2D7C2020A5
:1007F0003E203C7C20203E3E3E3E3E207C207C55E0
:10080000202020207C7C767C7C55203E3E3E3E2075
:100810002D7C6F7C2D2D2D202D2D7C202020202027
:100820003E3E3E20202D7C2D7C202020202D2D7C26
:100830002D2D7C203C3C3C3C3C2020202020202DA9
:100840002D5500207C20202020202020202020202A
:1008500020557C207C202055207C5E2D2D2D2D2D9B
:100860002D7C207C7C20207C207C767C20207C5E63
:10087000202020442D2D7C207C2D7C207C207C2061
:100880007C5E207C5E2D2D202020202055202020E5
:100890002020207C442020207C5E5520202D2D2DE2
:1008A0007C207C202020207C2D2D2D2D207C2D2D8A
:1008B0002D2D2D2D2D7C207C2D2D2D2D7C4420208B
:1008C00055207C207C202044202020203C207E5568
:1008D000207C2D2D2D2D557C207C202D2D2D2D7C0B
:1008E000207C2D2D2D2D7C202020202D7C557C55ED
:1008F000203C20202020202020202020202D2D449E
:1009000000202020202020202020202020202044E3
:100910007C447C207C44207C207C2D2D2D2D2D2D75
:100920005E2D2D20207C207C2D7C20447C202020CE
:100930002020207C2020207C2D2D7C207C2D7C20C4
:100940002D2D7C2D2D2D7C203C2020203E20202074
:100950002020202020207A7C44202020207C202061
:10096000207C2D2D2D2D2D2D7C7C203E202D2D7C91
:100970002D2D2D2D762D2D2020207C3D7C204420DA
:100980007C2020207C2D2D7C2020207C2044207C5D
:10099000207C207C207C207C2020202020207C208B
:1009A000202020207C2020207C2D7C447C442D2D68
:1009B0002D2D2D7C2D2D2D2D2D7C2D2D2D7C007C58
:1009C0002020202020202020202020202020202027
:1009D0007C207C557C207C2D2D2D2D7C7C202D2D6C
:1009E0002D2D2D7C557C557C207C207C5520202075
:1009F0007C20207C202020207C207C207C207C20CF
:100A00007C2D2D2D207C202D7C207C2D207C207C7D
:100A1000207C207C202020207C207C20207C207CAE
:100A200020207C207C207C202D2D2D7C207C207C77
:100A30002D2D2D207C207C20207C207C20207E20C1
:100A40007C207C2020202020207C7C2D2D2D7C20B3
:100A50007C20206C5F7C207C2D2D2D2D2D2D7C7CF1
:100A60003D2020202D7C202D6F207C557C202020B7
:100A70007C5520202020202020202020006C7C5528
:100A800020207C2D7C2D2D2D7C20207C202D7A205B
:100A90007C44202D7C2D207C207C5520207C202017
:100AA0007C20447C557C2020207C44207C2D7C2D87
:100AB0007C207C2D2D7C207C2D7C7C202D207C2D71
:100AC0002D2D2D2D2D7C20202020202020207C55F8
:100AD0002020207C20207C202020202D2D7C207C8C
:100AE000207C207C2D2D207C2D2D2D20207C7C20F9
:100AF000202020207C207C2020207C207C55202051
:100B0000207C7C2D2D2D2D7C207C2D2D2D2D557C7C
:100B1000207C2D2D2D2D7C7C20202020202020208D
:100B200020207C2D7C557C207C44202020202044CB
:100B30002020207C207C20202055002020447C2068
:100B40002020207C2D7C2D2D2D2D2D2D7C2D2D7CC0
:100B5000202D7C7C2D2D2D7C44207C202020552098
:100B6000207C44207C2020207C6F20207C7C202046
:100B700020207C2D2D20207C207C7C2D207C2D7C19
:100B8000207C2D2D2D2D207C202020207C447C209D
:100B900020207C207C207C20552020207C207C7CF8
:100BA000202D2D2D202D7C2D2D7C557C207C2D2D38
:100BB0002D2D207C7C2020207C20204420207C2D7A
:100BC0007C202020202020207C7C557C447C2D2DE6
:100BD0002D2D2D2D2D2D2D2D2D2D2D2D2D2D2D2D45
:100BE0002D2D2D44202020202020202020202020BA
:100BF000202020202020204400552D2D2D2D2D2D6E
:100C00002D2D2D2D2D2D7C20202020207C552020A9
:100C100020202020202020202020207C447C2D2DDE
:100C2000207C202D2D2D207C7C207C7C2D2D7C205B
:100C30002D2D7C2D7C207C20202020202D7C207CB4
:100C40007C2D2D2D202020202020207C20207C2D5C
:100C50007C2D7C207C7C44207E7C207C202D2020D0
:100C60002D20207C2020207C447C7C2D2D2D7C7C04
:100C70007C20202D20202020202020207C207C2D46
:100C80007C7C2D2D2D7C2D7C442D2D2D7C2D2D7CA3
:100C9000207C2D7C7C20202020207C2D7C2020206E
:100CA00020552020202020202020207C557C202022
:100CB00020202020202000442020207C2D2D2D2DA0
:100CC0002D2D2D2D2D2D2D20202020442D2D7C202F
:100CD000202020202020202020202020207C2D2D9E
:100CE0002D20207C207C2D2D2D2D7C207C2D2D2D2C
:100CF0007C207C2020207C2020207C202020202084
:100D00002020202020202020207C2D7C207C207C66
:100D1000207C2D2D7C207C2D2D2D2D7C207C2020B9
:100D20007C207C2020202020207C207C202D2D2D2C
:100D30007C207C2D2D20207C2D2D2D2D2D2D7C20DB
:100D40007C202020202020202020207C2020207C8F
:100D500020202020207C2D7C207C2D7C207C2D447C
:100D6000202020202020207C207C442020202020A7
:100D70002020202020002D2D2D2D2D2D2D2D2D2D11
:100D80007C202020202020202020207C5520202076
:100D900020202020207C202D2D2D7C207C2D2D20FE
:100DA0002D2D2D2D7C207C2D2D207C2020202D7C78
:100DB000207C5520202020202020207C5520207CB5
:100DC000207C20557C20202D2D207C207C2D7C20FB
:100DD0007C2D2D2D7C2D2D202D7C2D20207C207CEC
:100DE000207C207C20202020207C202020207C2093
:100DF000202D7C2D7C207C207C2D2D2D2D2D2D7CBF
:100E0000207C207C20206F7C207C207C207C2D2D51
:100E10002D2D2D207C207C207C2D2D2D7C202055DF
:100E20007C20202020202020202020202020202066
:100E3000202055007C2D2D2D20202D2D2D2D2D2DCC
:100E40002D552D2D2020207C557C4420207C2020D9
:100E5000202020202020202020207C2D7C207C2071
:100E600020207C207C2D2D2D2D207C207C20207C82
:100E7000447C207C2D7C2D7C207C20202D2D2D7CE5
:100E800020447C207C557C6C7E207C557C207C2DF5
:100E90002020202020202020207C2D7C2D20207C24
:100EA000207C5520207C2D2D2D7C2D2D7C2020205C
:100EB000202020207C207C2D2D2D2D2020202D2D2C
:100EC0002D7C207C7C202020207C202020202020A5
:100ED00020552020202020202020202020442D2D9F
:100EE0002D2D2D2D2D2D2D2D2D2D2D2D2D2D20204C
:100EF00044007C7C2020207C7C202D2D2D2D7C44CA
:100F000020202020447C447C7C2044207C7C207C4D
:100F10007C207C202D7C207C202020207C7C20209C
:100F2000207C7C207C2D202D7C207C207C2D2D2D58
:100F30002D7C7A7C207C2020207C2020207C20207E
:100F4000207C7C447C207C207C447C2D7C207C206C
:100F500020207C2D2D2D207C207C207C207C2D7C35
:100F6000447C207C2020207C202020207C202020ED
:100F70007C20202020207C207C2D202D7C207C3D6E
:100F80007C7C2D2D202D2D2D2D2D2D7C207C7C4409
:100F90007C7C207C2D2D7C202020202020202020C7
:100FA00020207C2D2D2D7C2020202020202D2D0068
:100FB0002D402D2D2D2D2D55203E55203C203C3CE7
:100FC0003C3C5E767620202D2D2D2D2D20203E20A0
:100FD0005E3E5E5E3E3E3E5E7676202D2D2D2D2DB4
:100FE0002D2020765E5E763E5E76765E3E3E3E202C
:100FF00020203C203E202020765E3E3C765E5576CA
:101000003E3C76762D20202D2D2D202D20763C5E09
:101010005E763C5E3E3E3C76762D2D202A202D20AD
:101020002D20203C5E3E76763C5E76765E762D2DDB
:10103000202D6C2D202D203E3E3E76763E3E3E7687
:101040007676762D2D202D2D2D202D205E3C5E7662
:101050005E3E5E3E767676762D2D2020203E202D3B
:10106000203C763C763E763E55767A3E55002D2DD8
:101070002D2D2D2D55442D2D202D2D2D2D2D2D207B
:10108000203C20202A2020552D2D2D2D20202020D1
:101090002020202020202D2020402D2D2D2D2020EF
:1010A00020202D2D2D202D2D2D2D202D20205E2D8D
:1010B00020442D55202D2D2D2D2D552D202D2D202D
:1010C0002D20762A2D2A2D2D20202D2D2D2D2D2041
:1010D0002D202D2D5E2D2020403E20202D2D2D2D2C
:1010E0002D2D2D2D202D206F20202D2020203E2045
:1010F00040203C202020203E20202D202020202D7C
:10110000202D2040203C204020202055203E202D16
:101110002D2D2D2D2D202D2D2D2D2D2D2D2D2D2D0C
:101120002D2D2D2D2D2D20202020002D2D2D2D2D50
:101130002D44202020202020202020203E20202D53
:101140002D2D2020202D2D2D2D5E765E2D2D2D2D4B
:10115000202D2D202D2D2D202D2D2D20203C20200B
:10116000203E20202D202D2D202D2D2D202D2D2DEC
:1011700044203E2020203C44202D202D2D3D2D2D8F
:101180002D7E2D2D2D20203C2020203E20202D2086
:101190002D2D202D2D2D202D2D2D2D2D2D765E76D6
:1011A0002D2D2D2D203E20202D2D2D202D2D2D2D92
:1011B0002D2D2020202D202D20202D2D202D2D2DBA
:1011C000202D2D2D2D2D2D2044202D2D2D20202D79
:1011D0002D202D2D2D20202020203E2020202020BD
:1011E0003E2020203C20202D002D203E3E3E3E3E35
:1011F0003E3E3E20203C3C3C3C3C3C3C20202D20C4
:101200002D3C40203C203C403C202D2D2D2D2D2DD3
:101210003D2D202D6F2D76763C403C402D20202DFD
:10122000203E20202D7E2D202D6C2D4076202D2D32
:101230002D2D20202D5E403E202D2320202D7A2D87
:1012400076203C403C3C403C202D402D20202D2D44
:101250002D5E2D202D2076202D2D2D2D20202D5E54
:101260002D2D20202D2D402D2A2D20203C203C40AE
:101270002D20203E403E403E202D2D5E2D202D2055
:101280003C403C203C403C202D2D2D2D20203E3E3E
:10129000202D2020203E3E3E3E3E3E20203C3C3C39
:1012A0003C3C203E3E2000202020202020202020EA
:1012B0003C203C20202020203E3E3E20202D2D2D75
:1012C0002D2D202D203E203E202D2D202D2D762D24
:1012D00020203C6C203C3C202D2D2D2D2D2D202020
:1012E000202D6F202D20202D202D2D2020202D2D54
:1012F000202D20202D202D2D762D20202D5E2D2DF2
:10130000202D202D2D202D202D2D2020202020208F
:101310002020202020202D202D2D202D20202D208C
:101320002D5E2D2D20202D202D2D762D20203C20B2
:101330003C202020202D3D2D2020202D207A3E20D5
:101340002D2D2D2D2D2D2D2D2D202D5E2D202D7E65
:101350002D202D2D202020203E203E202020203C0E
:101360003C3C202D0020202D2020202D2D2D2D2D0A
:101370002D2D2D2020202D2D2D2D206F2D202D20A9
:10138000202020202020202D202D202020202D2036
:101390002D2D202D202D2D202D202D202D2D2D20CB
:1013A0002D2D7E2D202020202D202D2D2020202D84
:1013B00020202020202D2D2D2D202D2D2D2D2020C5
:1013C00020202D202D202D202D2020202020202DDC
:1013D000206C2D202D2D202D202D202D2020202D66
:1013E0002D2D20202D202D2D202D2D202D20202095
:1013F0002D2D2D202D207A20202D202D2D202D2D1E
:101400002020202D2D2D3D2D202D202D2020202071
:101410002020202020202D2D2D2D2D2020202D207E
:1014200020200040004300200023000000000000B6
:101430003E5B4F5B3E3E6B4F6B3E1C3E7C3E1C1842
:101440003C7E3C181C577D571C1C5E7F5E1C0018A0
:101450003C1800FFE7C3E7FF0018241800FFE7DB94
:10146000E7FF30483A060E2629792926407F0505F0
:1014700007407F05253F5A3CE73C5A7F3E1C1C082D
:10148000081C1C3E7F14227F22145F5F005F5F06F2
:10149000097F017F006689956A606060606094A240
:1014A000FFA29408047E040810207E201008082A59
:1014B0001C08081C2A08081E101010100C1E0C1EF8
:1014C0000C30383E3830060E3E0E0600000000009C
:1014D00000005F00000007000700147F147F142441
:1014E0002A7F2A12231308646236495620500008C6
:1014F000070300001C2241000041221C002A1C7F1F
:101500001C2A08083E0808008070300008080808F7
:1015100008000060600020100804023E5149453E6A
:1015200000427F400072494949462141494D3318E4
:1015300014127F1027454545393C4A49493141211C
:101540001109073649494936464949291E00001400
:101550000000004034000000081422411414141448
:1015600014004122140802015909063E415D594EFA
:101570007C1211127C7F494949363E414141227F0C
:101580004141413E7F494949417F090909013E41A5
:101590004151737F0808087F00417F41002040418E
:1015A0003F017F081422417F404040407F021C02DF
:1015B0007F7F0408107F3E4141413E7F09090906B3
:1015C0003E4151215E7F0919294626494949320386
:1015D000017F01033F4040403F1F2040201F3F400C
:1015E00038403F63140814630304780403615949C5
:1015F0004D43007F41414102040810200041414118
:101600007F040201020440404040400003070800FC
:1016100020545478407F284444383844444428387F
:101620004444287F385454541800087E090218A4F2
:10163000A49C787F0804047800447D40002040404A
:101640003D007F1028440000417F40007C04780466
:10165000787C080404783844444438FC182424185E
:1016600018242418FC7C0804040848545454240406
:10167000043F44243C4040207C1C2040201C3C4033
:1016800030403C44281028444C9090907C44645452
:101690004C44000836410000007700000041360845
:1016A0000002010204023C2623263C1EA1A1611275
:1016B0003A4040207A3854545559215555794121A2
:1016C00054547841215554784020545579400C1E8B
:1016D0005272123955555559395454545939555433
:1016E00054580000457C410002457D420001457C84
:1016F00040F0292429F0F0282528F07C5455450095
:101700002054547C547C0A097F4932494949323279
:1017100048484832324A4848303A4141217A3A42B0
:10172000402078009DA0A07D39444444393D40408C
:10173000403D3C24FF2424487E4943662B2FFC2F48
:101740002BFF0929F620C0887E09032054547941D3
:101750000000447D413048484A32384040227A00F7
:101760007A0A0A727D0D19317D2629292F2826290A
:1017700029292630484D402038080808080808085C
:1017800008382F10C8ACBA2F102834FA00007B009C
:101790000008142A142222142A1408950022009505
:1017A000AA005500AAAA55AA55AA000000FF0010D9
:1017B0001010FF00141414FF001010FF00FF101091
:1017C000F010F0141414FC001414F700FF0000FFD4
:1017D00000FF1414F404FC141417101F10101F1031
:1017E0001F1414141F00101010F0000000001F1030
:1017F0001010101F10101010F010000000FF10103B
:1018000010101010101010FF10000000FF14000046
:10181000FF00FF00001F10170000FC04F414141751
:1018200010171414F404F40000FF00F71414141437
:10183000141414F700F7141414171410101F101FA9
:10184000141414F4141010F010F000001F101F00F6
:1018500000001F14000000FC140000F010F0101035
:10186000FF10FF141414FF141010101F00000000CC
:10187000F010FFFFFFFFFFF0F0F0F0F0FFFFFF00C0
:1018800000000000FFFF0F0F0F0F0F3844443844D3
:101890007C2A2A3E147E02020606027E027E026333
:1018A000554941633844443C04407E201E200602D2
:1018B0007E020299A5E7A5991C2A492A1C4C7201AF
:1018C000724C304A4D4D303048784830BC625A46F0
:1018D0003D3E494949007E0101017E2A2A2A2A2AE1
:1018E00044445F444440514A444040444A514000CB
:1018F00000FF0103E080FF000008086B6B08361250
:10190000362436060F090F060000181800000010D4
:1019100010003040FF0101001F01011E00191D17BA
:1019200012003C3C3C3C0000000000010204081096
:10193000204080009A1E11241FBECFEFDAE0DEBFE8
:10194000CDBF11E0A0E0B1E0E8EAFFE302C00590FE
:101950000D92A838B107D9F727E0A8E8B1E001C097
:101960001D92A430B207E1F71CE0CBE9DCE004C033
:101970002197FE010E94B31FCA39D107C9F70E94FF
:10198000EC160C94D21F0C940000CF93DF931F929F
:10199000CDB7DEB76983DC01ED91FC910280F38164
:1019A000E02D41E050E0BE016F5F7F4F09950F9041
:1019B000DF91CF91089583E08093E9008091F20058
:1019C000882319F08AE38093E8000895FC01848558
:1019D000958597FD0BC09FB7F89482E08093E9004E
:1019E0008091F2009FBF90E0019608959FB7F89410
:1019F00082E08093E9008091F2009FBF90E008951B
:101A00008F929F92AF92BF92CF92DF92EF92FF920E
:101A10000F931F93CF93DF936C017B018A01809119
:101A20000B01882309F45CC080919701882309F495
:101A300057C08091940180FF05C08091E0008260D2
:101A40008093E000E801B12C8AEFA82E93E0892E64
:101A50002AE3922E209711F4BB20D9F10E949A1309
:101A600081110AC0AA94AA20D9F161E070E080E057
:101A700090E00E942F14EECF282F30E0C217D3073A
:101A80000CF48C2F9FB7F8948092E9002091E80025
:101A900025FF1DC0282F30E0C21BD30BF70181505A
:101AA00020F041914093F100FACFE20EF31EBB20EB
:101AB00019F09092E8000AC08091E80085FD07C007
:101AC0009092E800BB24B394209709F0B12C9FBFFB
:101AD000C1CF5D9884E6809395011016110644F0FD
:101AE00081E090E0F6019383828380E090E001C082
:101AF000C801DF91CF911F910F91FF90EF90DF9080
:101B0000CF90BF90AF909F908F9008950E949A13AE
:101B100090E008950F931F93CF93DF931F92CDB75B
:101B2000DEB78C01FC018485958597FF0EC0CE0140
:101B300001960E946C13019719F4898190E002C00C
:101B40008FEF9FEFF80195878487F801848595854D
:101B50000F90DF91CF911F910F910895CF93DF9355
:101B60001F92CDB7DEB7FC018485958597FD05C032
:101B70002FEF3FEF358724870BC0CE0101960E94DF
:101B80006C13019719F4898190E002C08FEF9FEFE9
:101B90000F90DF91CF910895DF92EF92FF920F9314
:101BA0001F93CF93DF93D82E8A017B01E40EF51E9D
:101BB000EB01CE15DF0571F0D7FE03C0FE01849165
:101BC00001C088810E94B11621968111F2CF8FEF5A
:101BD0009FEF01C0C801DF91CF911F910F91FF903E
:101BE000EF90DF9008950F931F93CF93DF931F9291
:101BF000CDB7DEB782E0898342E450E069E177E067
:101C000080E80E94CC0D0E94AB13DC0112960D916E
:101C10001C9113970115110589F0D801ED91FC91E4
:101C20000280F381E02DBE016F5F7F4FC8010995EF
:101C300097FD04C0F80100851185ECCF89810F90D4
:101C4000DF91CF911F910F9108951F920F920FB6C0
:101C50000F9211248F939F938091E1009091E10066
:101C6000937F9093E10083FF0FC01092E90091E011
:101C70009093EB001092EC0092E39093ED001092A1
:101C8000970198E09093F00082FF20C093E090933A
:101C9000E9009091F200992319F09AE39093E800FB
:101CA00090919501992339F09091950191509093DD
:101CB0009501992389F190919601992339F090919A
:101CC0009601915090939601992341F184FF10C0A1
:101CD0008091E2008E7E81608093E2008091E1003D
:101CE0008F7E8093E100809194018E7E806111C08F
:101CF00080FF16C08091E2008E7E80618093E200BA
:101D00008091E1008E7E8093E100809194018E7E2F
:101D100081608093940104C05D9ACDCF289AD6CF7C
:101D20009F918F910F900FBE0F901F9018951F924B
:101D30000F920FB60F921124CF92DF92EF92FF9283
:101D40000F931F932F933F934F935F936F937F93C3
:101D50008F939F93AF93BF93EF93FF93CF93DF93B3
:101D6000CDB7DEB76C97DEBFCDBF1092E900809192
:101D7000E80083FFEFC168E0CE0145960E94DF16C0
:101D800082EF8093E8008D8987FF05C09091E8007D
:101D900090FFFCCF03C09EEF9093E800982F9076C1
:101DA00009F0C6C09E894F89588D2F89F88C9111F2
:101DB0000CC0803829F4809193018093F10002C017
:101DC0001092F1001092F100BEC1913051F48111D6
:101DD000BAC14130510509F0B6C1809193018D7FA0
:101DE0000BC0933061F48111AEC14130510509F04F
:101DF000AAC180919301826080939301A4C1953020
:101E000049F48091E80080FFFCCF822F80688093A6
:101E1000E30099C1963009F05EC00B8D1C8D22E065
:101E20001092E9001092910110929001F21232C0CA
:101E300010928F0110928E010E94F30D99E0BE0165
:101E40006F5F7F4FDB01E92F1D92EA95E9F79983D8
:101E5000FA8291E09E8390EA98879AEF9987209181
:101E6000900130919101275F3F4F3C832B838D83FD
:101E70001092E900109291011092900110938F013D
:101E800000938E0149E050E080E00E94CC0D0E945A
:101E9000F30D59C110938F0100938E010E94AB1373
:101EA000DC0112960D911C9113970115110509F48F
:101EB000BFC0D801ED91FC910480F581E02DBE01F9
:101EC0006B5E7F4FC8010995009709F0ACC0F8011F
:101ED00000851185EACF973009F439C1983021F493
:101EE00081E08093F1002FC1993009F02CC18370FB
:101EF00009F02DC1EBE1F1E081E031E096E32081D2
:101F0000211109C08EE78093EA001092EA008F89C0
:101F10008093970118C18093E9003093EB002191E1
:101F20002093EC009093ED008F5F873041F7EACF6C
:101F30008B8D9C8D1092E90010929101109290016E
:101F400090938F0180938E01898D811150C08E896D
:101F50009D89913A49F4813209F0F9C047E050E097
:101F600064E071E080E0B8C0913209F0F0C08332E3
:101F700069F48F89988DA0E0B0E080930001909380
:101F80000101A0930201B0930301DDC0803269F426
:101F90008091E80082FFFCCF67E084E091E00E943E
:101FA000DF168BEF8093E80006C0823209F0CBC0C9
:101FB0008F8980930B0180919201811103C0E0E031
:101FC000F8E002C0EEEFFAE0809104019091050183
:101FD000A0910601B0910701803B9440A105B10595
:101FE00009F07DC080910B0180FF95C078C00E94F0
:101FF000AB13DC0112960D911C911397011511057D
:1020000009F4A5C0D801ED91FC910190F081E02D7B
:10201000BE016B5E7F4FC8010995811194C0F80124
:1020200000851185EBCF181619060CF48CC08FC0F3
:10203000F1E0FF1609F447C0F3E0FF1288C08F8972
:10204000882309F443C0823029F440E867E08DE733
:1020500097E006C0813051F440E86BE081E797E0FB
:102060000E94651E882309F472C06DC0833009F098
:102070006EC00E94AB13DC011296ED90FC9013979A
:102080008E010F5F1F4F6801E114F10479F0D70151
:10209000ED91FC910680F781E02DB801C70109950B
:1020A000080F111DF701E084F184EECFD8011C92D6
:1020B000F60101900020E9F73197BF016C197D0905
:1020C00040E0C601CDCF6FE577E002C06BE577E079
:1020D000FB01449150E080E80E94CC0D34C00FB663
:1020E000F894A895809160008861809360001092B8
:1020F00060000FBEA895EE3F2AE0F20739F080910C
:10210000FE0A9091FF0A918380831DC01092FF0AFE
:102110001092FE0A18C0EE3F8AE0F80731F0808185
:1021200091819093FF0A8093FE0A87E797E7918356
:1021300080839BE088E10FB6F894A89580936000B7
:102140000FBE909360008EEF8093E80003C081E2A1
:102150008093EB006C960FB6F894DEBF0FBECDBF38
:10216000DF91CF91FF91EF91BF91AF919F918F91AF
:102170007F916F915F914F913F912F911F910F919F
:10218000FF90EF90DF90CF900F900FBE0F901F90B9
:10219000189542E050E065E871E08CE896E00C9418
:1021A000BF1320919606282329F490919506982331
:1021B00081E009F480E008952F923F924F925F9260
:1021C0006F927F928F929F92AF92BF92CF92DF9247
:1021D000EF92FF920F931F93CF93DF93CDB7DEB7AC
:1021E0002A970FB6F894DEBF0FBECDBF5A01822EDC
:1021F000912C9401280F391F37FDBAC08038910502
:102200000CF0B6C09B01200F311D37FDB1C060340A
:1022100071050CF0ADC0AB0177FF04C04427552712
:10222000461B570B477055279B0177FF02C0295F5C
:102230003F4FE3E035952795EA95E1F777FF08C032
:102240002150310968E070E0FB01E41BF50BAF01A0
:10225000202E269426942694312C077019F0FFEF37
:102260002F1A3F0A220E331E39017694762C6624EB
:1022700077946794680E791EE12CF12C00E010E051
:10228000B30160587F4F7A87698768E070E0FB018F
:10229000E41BF50BFA83E9832216330609F468C0C0
:1022A0002830310509F464C02F3FFFEF3F070CF4DD
:1022B00054C0E985FA85E00FF11FBF0168567E4FD3
:1022C0007C836B83D801A60DB71DA856BE4F6C0149
:1022D00060E070E0681579050CF03FC0E0E8CE16CC
:1022E000D10409F43AC0D7FC2CC02F3FFFEF3F07C1
:1022F00009F43AC0FB01EE0DFF1DEA0DFB1DE49150
:10230000042E01C0EE0F0A94EAF7FC91EF2BEC9338
:1023100041155105B1F02730310599F0FB01EE0D63
:10232000FF1DEA0DFB1DE4914E2E512C098002C0C9
:10233000559447940A94E2F7EB81FC81508045283C
:1023400040826F5F7F4FEB81FC813196FC83EB8392
:10235000FFEFCF1ADF0A1196BDCF2F5F3F4F005816
:102360001F4FE80CF91C98CF41155105B9F6E9CF7C
:102370002A960FB6F894DEBF0FBECDBFDF91CF9186
:102380001F910F91FF90EF90DF90CF90BF90AF9093
:102390009F908F907F906F905F904F903F902F9085
:1023A0000895EF92FF920F931F93CF93DF937C01D9
:1023B0008B01095F1F4FEB0177FF02C0C0E0D0E047
:1023C000C8010134110514F080E490E0C817D90762
:1023D0005CF480E8E816F10428F440E0BE01C7018F
:1023E0000E94C4142196ECCFDF91CF911F910F91E1
:1023F000FF90EF9008959C012B5F3F4F25383105EA
:1024000070F5FC0197FF02C0E0E0F0E0069681382D
:10241000910514F080E890E08E1BAB0147705527C2
:1024200021E030E001C0220F4A95EAF7209577FFBE
:1024300002C0695F7F4F93E0759567959A95E1F7C4
:102440007695762F662777956795E60FF71FE856FE
:10245000FE4F815020F0908192239193FACF0895FE
:1024600088E00E94D110882331F084E090E09093BE
:1024700082068093810684E00E94D110882331F087
:1024800083E090E0909382068093810684E00E942E
:10249000D110882359F088E00E94D110882331F0B0
:1024A00082E090E0909382068093810608958F9257
:1024B0009F92AF92BF920F931F93CF93DF93CDB7AD
:1024C000DEB7A1970FB6F894DEBF0FBECDBF19A23D
:1024D000423008F44AE08E010F5D1F4F842E912C8C
:1024E000A12CB12CA50194010E94711FE62FB90106
:1024F000CA0101501109EA3014F4E05D01C0E95C41
:10250000D801EC93232B242B252B61F70115110502
:1025100071F0F80101900020E9F73197AF01401BFD
:10252000510BB8018CE896E00E94BF1302C080E016
:1025300090E0A1960FB6F894DEBF0FBECDBFDF913D
:10254000CF911F910F91BF90AF909F908F90089562
:10255000CF92DF92EF92FF92CF93DF936B017C01DA
:102560006DE28CE896E00E94DC14EC016627772788
:10257000CB016C197D098E099F094AE00E94571210
:102580008C0F9D1FDF91CF91FF90EF90DF90CF9048
:102590000895CF93DF93BC01990F880B990B97FF98
:1025A00003C00E94A81203C04AE00E945712EC0127
:1025B0000E94C9108C0F9D1FDF91CF9108950F933A
:1025C0001F93CF93DF938C01C0E0D0E0F801EC0FB4
:1025D000FD1F6491662341F08CE896E00E94DC14B4
:1025E000892B11F02196F2CFCE01DF91CF911F916F
:1025F0000F910895CF93DF930E94DF12EC010E94A8
:10260000C9108C0F9D1FDF91CF910895CF93DF9359
:1026100010928B068091BD05E091BC05F0E0EE0FB5
:10262000FF1FEA55FA4F20819181A22FB92FA80FE1
:10263000B11DA80FB11DC3ECD5E020E030E060E093
:1026400043E254E1ED91FC911197E20FF31FE49105
:10265000E993ED91FC911197E20FF31F8491FA0138
:102660009491E82F880FFF0B892F90E0E817F90766
:1026700009F461E02F5F3F4F2D3B310519F760935F
:102680008A06DF91CF910895E8E9F5E093A59813C4
:1026900001C063A7319696E0E535F907B9F70895CB
:1026A00080E0E8E9F1E081118FEF002481938193CC
:1026B000819381930394D1F70895E8E9F1E0A0E0D4
:1026C000B8E000800EBC8111012C1197A0FDFDCF58
:1026D0000192B9F70DB4089520919701211103C01B
:1026E0008FEF9FEF08955FB7F89422E02093E90001
:1026F0002091F20030E01216130614F421E030E0CD
:10270000422FFC0184E6415038F0289880939601CE
:102710009091F1009193F7CF2115310521F080912F
:10272000F200882319F05FBFC90108958BE68093FA
:10273000E800F9CF2FB7F89483E08093E9009091F7
:10274000E800892F807295FF04C09091F20080E428
:10275000891B2FBF08958091A70681110DC082E0CB
:102760008093A30684E08093A4061092A60610929C
:10277000A50681E08093A70683EA96E00895CF92AC
:10278000DF92EF92FF920F931F93CF93DF936C0131
:102790007A018B01C0E0D0E0CE15DF0581F0D801D1
:1027A0006D918D01D601ED91FC910190F081E02DAC
:1027B000C6010995892B11F02196EECF7E01C70144
:1027C000DF91CF911F910F91FF90EF90DF90CF900D
:1027D00008953FB7F8948091000790910107A09168
:1027E0000207B091030726B5A89B05C02F3F19F03B
:1027F0000196A11DB11D3FBFBA2FA92F982F882781
:10280000820F911DA11DB11DBC01CD0142E0660FDB
:10281000771F881F991F4A95D1F708950895089545
:1028200080E090E008950E94CD1FEF92FF920F93F9
:10283000CF93DF937C01C0E0D0E007E026E048EED4
:1028400052E0BE01C7010E94DC102796CF33D105AC
:10285000A1F7DF91CF910F91FF90EF9008958F92A4
:102860009F92AF92BF92CF92DF92EF92FF926B0155
:102870007C010E94E9134B015C01C114D104E10405
:10288000F104F1F00E94E913DC01CB0188199909E8
:10289000AA09BB09883E9340A105B10570F321E068
:1028A000C21AD108E108F10888EE880E83E0981E6C
:1028B000A11CB11CC114D104E104F10419F7DDCF4E
:1028C000FF90EF90DF90CF90BF90AF909F908F9050
:1028D00008951F920F920FB60F9211242F933F93DA
:1028E0008F939F93AF93BF938091880190918901BB
:1028F000A0918A01B0918B013091FF0623E0230F54
:102900002D3720F40196A11DB11D05C026E8230F27
:102910000296A11DB11D2093FF068093880190931C
:102920008901A0938A01B0938B0180910007909157
:102930000107A0910207B09103070196A11DB11DE7
:102940008093000790930107A0930207B0930307B9
:10295000BF91AF919F918F913F912F910F900FBE9B
:102960000F901F9018952D9A0895BC0180E090E07B
:102970000C942F148FB18095807F669B88601C9B80
:10298000846008950C945B1FEBE2F9E190E1969F5F
:10299000D001A0781124A80F6770E60FF11D949163
:1029A000A856BE4F442319F08C91982B03C09095E4
:1029B0008C9198239C9308952F923F924F925F920F
:1029C0006F927F928F929F92AF92BF92CF92DF923F
:1029D000EF92FF920F931F93CF93DF93CDB7DEB7A4
:1029E00027970FB6F894DEBF0FBECDBF9F838E83AF
:1029F0006A30A1F4DC0155962C91559751968D9132
:102A00009C915297B8E02B9F800D911D1124EE816F
:102A1000FF81928B818B108A1786B5C06D3009F4C7
:102A2000B2C0AE81BF811F960D911C9150970038A6
:102A30001105BCF0EE81FF812589422F50E087858A
:102A40009089F6E02F9F800D911D1124AE81BF81EA
:102A500050969C938E931F9756962C9121117DC072
:102A600092C0EE81FF8181889288F0E48F169104F4
:102A70000CF7AE81BF8155963C90C801B5E03B9EF6
:102A8000800D911D112418161906A4F6432C512C03
:102A9000C401E8E03E9E800D911D11241816190610
:102AA0004CF6AE81BF815496BC91BC83EE81FF8110
:102AB000F389FD8325E0629FB0011124CB01855D80
:102AC0009B4E3C011982F3012490F981F53009F401
:102AD000212C540128E02B8320FE03C03D813A8342
:102AE00002C08C818A839A81911104C0AC81BD811E
:102AF000AB17F9F078018E2D801B8315D0F465019A
:102B00008C2D8A19831588F4E0E8EE16F10448F458
:102B1000F0E4CF16D10428F44A81B601C7010E941F
:102B2000C4142FEFC21AD20AEBCF3FEFE31AF30A15
:102B3000E2CF26948B8181508B83A40CB51C81112C
:102B4000CBCF99819F5F9983040D151DD3011196F9
:102B50003D01963009F0B7CF6DCF6AEF6403900165
:102B6000659F300D112420583F4F281739075CF41A
:102B7000AE81BF81ED91FC9111970190F081E02D24
:102B80006AE0CD01099581E090E027960FB6F894B0
:102B9000DEBF0FBECDBFDF91CF911F910F91FF9090
:102BA000EF90DF90CF90BF90AF909F908F907F90ED
:102BB0006F905F904F903F902F900895282F880F2F
:102BC000330BE9E2F4E1E491F0E02E173F0709F45A
:102BD00045C0E3E2F4E1E491F0E02E173F0709F489
:102BE0003DC0E2E7F2E0E491F0E02E173F0709F480
:102BF00035C0E4E7F2E0E491F0E02E173F0709F476
:102C00002DC0E0E7F2E0E491F0E02E173F0731F14C
:102C1000EEE6F2E0E491F0E02E173F07F9F0ECE683
:102C2000F2E0E491F0E02E173F07C1F0E7E2F4E1B3
:102C3000E491F0E02E173F0789F0E8E7F2E0E49135
:102C4000F0E02E173F0751F0E6E7F2E0E491F0E004
:102C500081E0E217F30719F080E0089581E008951C
:102C6000282F30E065E10E94931FA901491B5109FB
:102C7000CA0165E170E00E949F1F87E0869F802D5A
:102C800011240895853170F08A3218F490E0459748
:102C900009C08F3318F490E08A9704C0843530F46B
:102CA00090E0CF97982F990F890F2FC0893630F475
:102CB00092E0899F800D11248C5F27C08E3730F4FD
:102CC00092E0899F800D11248B531FC0833930F40B
:102CD00092E0899F800D11248A5717C0883A30F4FA
:102CE00092E0899F800D1124895B0FC08D3B30F4E9
:102CF00092E0899F800D1124885F07C0823D38F4DF
:102D000092E0899F800D11248753880F08950895BC
:102D1000EF92FF920F93CF937C01C0E08C2F0E9423
:102D2000421607E026E048EE52E0B70190E00E942C
:102D3000DC10CF5FC63191F7CF910F91FF90EF90EC
:102D4000089580E090E00E94151488E790E00E94CA
:102D5000151480E090E00E94881688E390E00C94BF
:102D60008816409190015091910120918E013091EF
:102D70008F0142175307B4F49091E8009570E1F386
:102D80009091E80092FD19C08093F100809190012C
:102D90009091910101968F739927892B19F48EEFE9
:102DA0008093E80080919001909191010196909319
:102DB00091018093900181E0089580E00895615031
:102DC00030F02091F100FC0120830196F8CF289883
:102DD00084E6809396010895789484B5826084BDDA
:102DE00084B5816084BD85B5826085BD85B581600F
:102DF00085BD80916E00816080936E00109281008D
:102E00008091810082608093810080918100816047
:102E10008093810080918000816080938000809108
:102E200091008260809391008091910081608093F5
:102E30009100809190008160809390008091C1000A
:102E400084608093C1008091C10082608093C10042
:102E50008091C10081608093C1008091C300816036
:102E60008093C3008091C00082608093C0008091F5
:102E7000C20081608093C20080917A008460809358
:102E80007A0080917A00826080937A0080917A0043
:102E9000816080937A0080917A00806880937A00C4
:102EA0001092970110929301109294018091D70093
:102EB00081608093D70080EA8093D80089B58061D3
:102EC00089BD89B5826089BD09B400FEFDCF61E08E
:102ED00070E080E090E00E942F148091D8008F7CF9
:102EE00080618093D8008091E000807F8093E00033
:102EF0008091E1008E7E8093E1008DE08093E2007E
:102F0000559A209AEEEFFFE7859194918B3F9C4D67
:102F100019F481E08093920181EC80937C0085B16B
:102F2000806F85B984B1877E84B984B1876E84B996
:102F30005E9A5F988AB1806D8AB9769A6E9881B3ED
:102F4000806F81BB899880B38D7080BB80E58CBD1C
:102F500081E08DBD85E090E00E94B5145F9A85E028
:102F600090E00E94B5145E985C98ECE6F1E089E789
:102F700091E024912EBD00000DB407FEFDCF3196E7
:102F80008E179F07B1F75C9A81E880936400809167
:102F9000650081608093650080E00E945D130E945F
:102FA000BA1487FF24C05C9885EA8EBD00000DB47A
:102FB00007FEFDCF5C9A2E982F982D988091640083
:102FC00080628093640081E083BF889513BEFCCF4C
:102FD0002D980E94BA148478843871F00E94BA1433
:102FE0008471843131F188EC90E00E94B5140E9424
:102FF000BA1482FDEDCF3AC00E94B31488EC90E081
:103000000E94B5142F9882E090E00E945B1F8F3FD2
:1030100029F06FEF82E090E00E94631F84EF91E05F
:103020000E94B5142F9A0E94BA1484788438D9F378
:10303000D5CF0E94B31488EC90E00E94B5142E986E
:1030400082E090E00E945B1F882329F060E082E02C
:1030500090E00E94631F84EF91E00E94B5142E9AC5
:103060000E94BA1484718431D9F3BDCF0E94B31485
:1030700082E090E00E94C214882319F03E9A3F9AA1
:1030800002C03E983F9881E090E00E94C214182F41
:10309000147081FF39C011112E98C0EFDFEF0E942C
:1030A000BA1486FF05C02E9A2F9A0E94B3142CC022
:1030B000112329F0C430D10511F42E9A2F9881E004
:1030C0000E945D1300E128E54CEB50E0BE0184E175
:1030D00090E00E94DC1080E00E945D138FE090E0A1
:1030E0000E94B5142196C931D105C9F6112311F0FA
:1030F0002F9A2D9880E991E00E94B5140E94B31494
:103100008CE896E00E94161F82E390E00E94B514BE
:103110000E94BA148111F8CF81E2809397060E9431
:10312000501310929E0610929D0610929C061092CB
:103130009B0674E1C72ED12CE6ED4E2EE2E05E2E0A
:10314000FEECAF2EF2E0BF2E8FB7F89440918801CD
:103150005091890160918A0170918B018FBF80919C
:103160009806942F981B892F90919906992329F0FE
:1031700080939A0610929906EBC190919706891751
:1031800048F48F5F891708F0E3C181E083BF889519
:1031900013BEDEC181E0809399064093980680912A
:1031A00093069091940601969093940680939306CB
:1031B00080919506809396060E94BA148093950696
:1031C0000E94501310929E0610929D0610929C062B
:1031D00010929B06C0918106D0918206C830D1051D
:1031E00008F0B3C1FE01EA5AFF4F0C94B31F00E48C
:1031F00020E847E153E060E070E080E090E00E946A
:10320000DC1088E00E94D110882309F49EC182E07E
:1032100090E076C184E00E94D110882309F495C122
:10322000109282061092810690C10E94A116C8E0F9
:10323000D0E0D0939C06C0939B06D0939E06C0938B
:103240009D0680E193E00E94DF1260918C017091F5
:103250008D01FB01ED57F94F80816F5F7F4F882310
:1032600071F1CB010E94C912D0939C06C0939B06BA
:1032700080E190E090939E0680939D06E0918C0102
:10328000F0918D01EE0FFF1FE856FA4F808191817A
:10329000181619068CF482E093E00E94DF12E09188
:1032A0008C01F0918D01EE0FFF1FE856FA4F8081DF
:1032B00091810E94C9121FC089EF92E01AC0072EA7
:1032C000000C880B990B97FF03C00E94A81203C043
:1032D0004AE00E94571288E090E090939C06809309
:1032E0009B0680E190E090939E0680939D0682EF7E
:1032F00092E00E94FA1280E80E94D110882349F0DF
:1033000080918C0190918D01019790938D01809314
:103310008C0180E10E94D110882349F080918C01BA
:1033200090918D01019690938D0180938C018091F5
:103330008C0190918D0197FF06C086E090E09093FC
:103340008D0180938C0180918C0190918D01079764
:1033500024F010928D0110928C0188E00E94D1100F
:10336000882309F4F2C080918C018093BC050E94EF
:103370000613C4C023ECE22E25E0F22E10E036EC5A
:10338000832E32E0932E4EEB642E42E0742EF70132
:1033900001917F01802F002E000C990BE0EFF2E0ED
:1033A000249130E08217930709F4DAC0EEEEF2E0E0
:1033B000249130E08217930709F046C3D1C00E94E0
:1033C00030128091BE05882351F000E120E14AE4EB
:1033D00052E068E270E080E590E00E94DC108091AD
:1033E000BF05882351F000E120E14AE252E064E1A8
:1033F00070E080E590E00E94DC108091C005882399
:1034000051F000E120E14AE052E065E070E080E543
:1034100090E00E94DC108091C105882351F000E10A
:1034200020E14AEE51E06EE170E084E690E00E9417
:10343000DC108091C205882351F000E120E14AECC4
:1034400051E06EE170E08CE390E00E94DC100E949D
:10345000A116C8E0D0E0D0939C06C0939B06D09301
:103460009E06C0939D0682EC91E00E94DF1280913F
:10347000BC0590E001960E94C912D0939C06C093AF
:103480009B0680E190E090939E0680939D068AEBD8
:1034900091E00E94DF126091BD0570E080E090E055
:1034A0004AE00E945712D0939C06C0939B0688E185
:1034B00090E090939E0680939D0681EB91E00E94A0
:1034C000DF12E091BC05F0E0EE0FFF1FE45FFE4F5E
:1034D0008081918138C080EA91E00E94DF12809162
:1034E000BC0590E001960E94C91281E991E00E941A
:1034F000FA1288E00E94D110882339F183E090E02D
:10350000909382068093810620C0D0929C06C09240
:103510009B06D0929E06C0929D0681E891E00E9493
:10352000FA12D0929C06C0929B068EE190E0909396
:103530009E0680939D0689E791E00E94DF128091AC
:10354000B9059091BA050E94C91280E00E945D13EE
:1035500080E090E0892B09F4F7CD0E940000F4CDC3
:10356000812F0E943016082F812F0E944216602F53
:1035700070E007E026E048EE52E090E00E94DC10A8
:1035800017C0812F0E943016382E812F0E944216BC
:1035900090E090939C0680939B06832D90E09093FF
:1035A0009E0680939D06602F8CE896E00E94DC14B6
:1035B0001F5F1D3B09F0EBCE1091B605812F0E94D5
:1035C0003016982EE82EF12C812F0E944216082FDB
:1035D00010E0FFE3F91520F0B701C8010E94FB11CC
:1035E000B7016A5F7F4F603471051CF4C8010E9407
:1035F000FB11B701C8010E94D111B701C80105969E
:103600000E94D1111091B605812F0E943016082F0B
:10361000812F0E944216602F70E007E026E04AE703
:1036200052E090E00E94DC1080E80E94D1101091DE
:10363000B6058823F1F0EBEEE10FF0E0E856FA4F23
:1036400083A50E94DE1581110DC0E6ECF2E0E49145
:10365000A091B605A551B0E0A856BA4F9B968C91A3
:103660008E13CAC08091B80590E007970CF061C036
:10367000C3C080E10E94D1108823F1F0E5E1E10FA1
:10368000F0E0E856FA4F83A50E94DE1581110DC0C7
:10369000EEEBF2E0E491A091B605AB5EB0E0A85687
:1036A000BA4F9B968C918E13A7C08091B80590E07D
:1036B000C3970CF43EC0A0C080E20E94D1108823C2
:1036C000C1F0E12FF0E0E856FA4F82A50E94DE1526
:1036D00081110AC0F2018491E091B605F0E0E8564C
:1036E000FA4F92A5981388C08091B705811121C027
:1036F00083C080E40E94D110882309F47DC0E12FAB
:10370000F0E0E856FA4F84A50E94DE1581110AC048
:10371000F5018491E091B605F0E0E856FA4F94A5E2
:1037200098136AC08091B70590E0883791050CF036
:1037300063C081E08093BB0580E80E94D11088239C
:1037400099F08091B80586508093B8058091B605B0
:1037500085518093B6058091B9059091BA0501967F
:103760009093BA058093B90580E10E94D110882317
:1037700099F08091B8058A5F8093B8058091B6056D
:103780008B5E8093B6058091B9059091BA0501963C
:103790009093BA058093B90580E20E94D1108823E6
:1037A00099F08091B70586508093B7058091B60552
:1037B00081508093B6058091B9059091BA05019624
:1037C0009093BA058093B90580E40E94D1108823B4
:1037D00099F08091B7058A5F8093B7058091B6050F
:1037E0008F5F8093B6058091B9059091BA050196D7
:1037F0009093BA058093B905E3E2F4E1E491A091D6
:10380000B605B0E0A856BA4F9B968C91082E000CD6
:10381000990BF0E08E179F07D1F48091BB058823A8
:10382000B1F01092BB0580918B06882309F428C261
:1038300010928B0680918B06882309F425C2E6E856
:10384000F2E06491EEE8F2E084910E944413E8E72C
:10385000F2E0E491A091B605B0E0A856BA4F9B966D
:103860008C91082E000C990BF0E08E179F0769F4DD
:103870008091BB05882349F01092BB058091BD055E
:1038800081508093BD050E940613E6E7F2E0E491C3
:10389000A091B605B0E0A856BA4F9B968C91082E21
:1038A000000C990BF0E08E179F0769F48091BB051F
:1038B000882349F01092BB058091BD058F5F8093EE
:1038C000BD050E940613E091B605F0E0E856FA4FF8
:1038D00083A5082E000C990BE4E7F2E0E491F0E0F8
:1038E0008E179F0709F4D6C1E2E7F2E0E491F0E019
:1038F0008E179F0709F4D1C1E0E7F2E0E491F0E010
:103900008E179F0709F4CCC1EEE6F2E0E491F0E0F7
:103910008E179F0709F4C9C1ECE6F2E0E491F0E0EC
:103920008E179F0709F4BFC18091BE05882309F453
:103930004BC08091BF05882309F446C08091C00523
:10394000882309F441C08091C1058823E9F1809161
:10395000C2058823C9F14091BC05E42FF0E0EE0FC9
:10396000FF1FE856FA4F808191818F3F2FEF92071A
:1039700009F0A0C18091B9059091BA059183808327
:1039800089E48093B6058CE38093B70585E1809345
:10399000B8051092BA051092B9051092BE051092A2
:1039A000BF051092C0051092C1051092C205109279
:1039B000BD054F5F4093BC050E94061387E090E071
:1039C00090938206809381060E9430128091BE05FA
:1039D000882341F0EAE6F2E06491E6EBF2E08491BC
:1039E0000E9444138091BF05882341F0EAE6F2E08B
:1039F0006491EEEAF2E084910E9444138091C00544
:103A0000882341F0EAE6F2E06491E6EAF2E084918C
:103A10000E9444138091C105882341F0EAE6F2E058
:103A20006491EEE9F2E084910E9444138091C20512
:103A3000882309F48ACDEAE6F2E06491E6E9F2E04F
:103A400084910E94441381CDE6EEF2E0249130E0AF
:103A50008217930771F4812F0E943016082F812F4F
:103A60000E944216602F70E007E026E040EE52E030
:103A700084CDEEEDF2E0249130E08217930771F4EB
:103A8000812F0E943016082F812F0E944216602F2E
:103A900070E007E026E048ED52E06FCDF20124919E
:103AA00030E08217930771F4812F0E943016082F9F
:103AB000812F0E944216602F70E007E026E040ED63
:103AC00052E05BCDF501249130E08217930771F449
:103AD000812F0E943016082F812F0E944216602FDE
:103AE00070E007E026E048EC52E047CDF401249175
:103AF00030E08217930709F48AC0F301249130E083
:103B00008217930709F46FC0E6EBF2E0249130E0EE
:103B10008217930771F4812F0E943016082F812F8E
:103B20000E944216602F70E007E026E040EB52E072
:103B300024CDEEEAF2E0249130E08217930771F48D
:103B4000812F0E943016082F812F0E944216602F6D
:103B500070E007E026E048EA52E00FCDE6EAF2E046
:103B6000249130E08217930771F4812F0E94301660
:103B7000082F812F0E944216602F70E007E026E098
:103B800040EA52E0FACCEEE9F2E0249130E082170C
:103B9000930771F4812F0E943016082F812F0E9405
:103BA0004216602F70E007E026E048E952E0E5CCDD
:103BB000E6E9F2E0249130E08217930771F4812F57
:103BC0000E943016082F812F0E944216602F70E04D
:103BD00007E026E040E952E0D0CCF301249130E048
:103BE0008217930771F4812F0E943016082F812FBE
:103BF0000E944216602F70E007E026E048EB52E09A
:103C0000BCCCF401249130E08217930771F4812F2A
:103C10000E943016082F812F0E944216602F70E0FC
:103C200007E026E040EC52E0A8CCEEE8F2E0E491B8
:103C3000F0E08E179F0771F4812F0E943016082F35
:103C4000812F0E944216602F70E007E026E048E8CE
:103C500052E093CCE6E8F2E0E491F0E08E179F07A3
:103C600009F08FCC812F0E943016082F812F0E94DF
:103C70004216602F70E007E026E040E852E07DCC7D
:103C800081E080938B06D6CDEEE8F2E06491E6E821
:103C9000F2E0DACDC1E0D0E008C0C2E0D0E005C07B
:103CA000C0E0D0E002C0C4E0D0E0C856DA4F81E006
:103CB0008EA33ACE2091B9053091BA05281739075D
:103CC0000CF05ECE318320835BCEDF92EF92FF92C9
:103CD0000F931F93CF93DF93D82EF92EE42E062F48
:103CE00010E0C8010196880F0E94B11683E00E947F
:103CF000B116CD2DDF2D0C0F1D1FC017D10789F078
:103D0000E7FE03C0FE01849101C088810E94B116C4
:103D1000F82E80E00E94B1168F2121968111EDCFFF
:103D200001C081E0DF91CF911F910F91FF90EF9043
:103D3000DF900895CF93EFEAF6E01382128288EEC7
:103D400093E0A0E0B0E084839583A683B78383E605
:103D500091E0918380838FEF9FEF958784878EE03A
:103D6000E1E2F1E0A8E9B5E001900D928A95E1F772
:103D70008EE0EFE2F1E0A6EAB5E001900D928A95BF
:103D8000E1F7E8E9F5E089E4868F8CE3878F85E148
:103D900080A312A211A213A285E294E1958F848FD1
:103DA00014A215A285E0EEEBF5E0DF011D928A95E5
:103DB000E9F78EEBE3ECF5E0DF011D928A95E9F778
:103DC0001092820610928106C1E0C0938306109281
:103DD000840610928506109286061092870610922D
:103DE00088061092890610928A0610928B060E940D
:103DF0000613ECE8F6E0138212821186128680E147
:103E0000838710861782158685E791E091838083EA
:103E100083E891E095838483108A1786128A118A39
:103E2000C38B148AC58B168ACF9108950F931F9365
:103E3000CF93DF938C0181E090E00E94C21480FF59
:103E400032C08AE090E00E94C2149FEF980F9E3F1C
:103E500050F522E330E0D80150963C932E931F9703
:103E600028E330E052963C932E935197CBE0D0E07C
:103E7000D801ED91FC910190F081E02D682FC801EF
:103E80000995CE010E94C2142196C131D10581F756
:103E900080E00E945D1388EE93E0DF91CF911F9147
:103EA0000F910C94B514DF91CF911F910F9108954C
:103EB00004970C94161FF999FECF92BD81BDF89A14
:103EC000992780B50895262FF999FECF1FBA92BD84
:103ED00081BD20BD0FB6F894FA9AF99A0FBE0196EB
:103EE0000895A1E21A2EAA1BBB1BFD010DC0AA1F3B
:103EF000BB1FEE1FFF1FA217B307E407F50720F053
:103F0000A21BB30BE40BF50B661F771F881F991FCD
:103F10001A9469F760957095809590959B01AC0116
:103F2000BD01CF010895991B79E004C0991F961730
:103F300008F0961B881F7A95C9F78095089597FB1E
:103F4000072E16F4009407D077FD09D00E94B91F00
:103F500007FC05D03EF4909581959F4F089570958C
:103F600061957F4F0895EE0FFF1F0590F491E02DAE
:103F70000994AA1BBB1B51E107C0AA1FBB1FA617B0
:103F8000B70710F0A61BB70B881F991F5A95A9F702
:103F900080959095BC01CD01089581E090E0F89462
:083FA0000C94D21FF894FFCF2E
:103FA800FFFFFFFF00E1000000000000010001002A
:103FB8000100030005000300030000C18081000028
:103FC80000FFFFFFFFFFFFFFFFFFFFFFFFFFFF5D9A
:103FD800015B01590153014D0143013D01010943B1
:103FE800088507B70CF90B3B0B7D0ABF09F20E34A5
:103FF8000E760D2B116E10B00FE911A71265130084
:10400800000000C50C000D860DDB0CE60CAE0D8A19
:104018000D00000000DC14BF1310140F14161FFC51
:08402800FF0000581F0D0A0003
:00000001FF
